S01100004F494F544F535F56302E7372656351
S214400000E8190120E9014000E5014000E501400013
S214400010E5014000E5014000E50140000000000029
S214400020000000000000000000000000913A400080
S214400030E501400000000000313B4000953B400099
S214400040E5014000E5014000E5014000E5014000D3
S214400050E5014000E5014000E5014000E5014000C3
S214400060E5014000E501400000000000E5014000D9
S214400070E5014000E5014000E5014000E5014000A3
S214400080E5014000E5014000E5014000E501400093
S214400090E5014000E5014000E5014000E501400083
S2144000A0E5014000E5014000E5014000E501400073
S2144000B0E5014000590E400000000000000000002E
S2144000C000000000000000000000000000000000EB
S2144000D000000000000000000000000000000000DB
S2144000E000000000000000000000000000000000CB
S2144000F0000000000000000000000000E501400095
S214400100E5014000E501400010B5054C237833B9C1
S214400110044B13B10448AFF300800123237010BD95
S2144001200002002000000000487C4000084B10B54C
S2144001301BB108490848AFF300800848036803B974
S21440014010BD074B002BFBD0BDE81040184700BF42
S2144001500000000004020020487C4000487C40002C
S2144001600000000008B54FF08072164B1A60272238
S21440017003F54C3303F502731A600222A3F5F853D5
S214400180143B1A600B22E03B1A600F4A0F4B1A6072
S2144001900F4AA3F598731A600F22403B1A6001225B
S2144001A0403B1A600B4A03F500731A604FF48072A6
S2144001B003F57C3303F541731A60074B9847074BAA
S2144001C0984708BDFCED00E055CEACC5B00F00E04A
S2144001D00D000100FE030040BD044000E101400068
S2144001E0704700BFFEE700BF08B5194B194A9A4250
S2144001F003D0194B164A9A4204D3184B184A9A42CF
S2144002000FD31AE01249174B5B1A23F0030304334B
S214400210104A134452F8040B41F8040B9A42F9D1A1
S214400220EBE7114B114AD21A22F003021A44043B60
S214400230002143F8041B9342FBD10D4A0D4B23F09B
S2144002407F0393600C4B98470C4B9847FEE700BFE4
S21440025000000020487C4000D4000020E413012029
S21440026000020020D300002004020020E7130120F3
S21440027000ED00E00000400045564000B11640004A
S21440028008B50248024B984708BD00BF10E000E0A2
S214400290D909400008B5084BD3F8083113F4003F9D
S2144002A004D14FF40032044BC3F8002103490448FC
S2144002B0044B984708BD00BF00040E400080044031
S2144002C008000120A90940000B4B1A6F22F4007267
S2144002D01A675A6F22F400725A674FF400725A60D7
S2144002E01A6F22F480621A675A6F22F480625A6745
S2144002F04FF480625A607047000E0E40044B9B6974
S21440030013F4807F03D14FF48072014B1A6170471B
S21440031000040E4008B5064B9847064B9847064BD8
S2144003209847024605490648064B984708BD00BF11
S214400330FD024000C90240005516400000C0004083
S21440034064000120050D40000A4B1A6F22F004029B
S2144003501A675A6F22F004025A6704225A601A6FCC
S21440036022F008021A675A6F22F008025A670822DB
S2144003705A60704700100E40044B9B6913F4007F90
S21440038003D14FF40072014B1A61704700040E40CF
S21440039008B5064B9847064B9847064B9847024683
S2144003A005490648064B984708BD00BF79034000FC
S2144003B049034000551640000000024070000120EE
S2144003C0050D4000104B1A6F22F020021A675A6F34
S2144003D022F020025A6720225A601A6F22F040020A
S2144003E01A675A6F22F040025A6740225A601A6FC4
S2144003F042F400421A675A6F22F400425A674FF49A
S21440040000425A60704700BF000E0E40044B9B6986
S21440041013F4804F03D14FF48042014B1A6170476A
S21440042000040E4008B5044B984704490448054B61
S2144004309847054B984708BD0D04400000400240D1
S21440044050000120390B4000C50340000A4B1A6F8C
S21440045022F010021A675A6F22F010025A671022D2
S2144004605A601A6F22F008021A675A6F22F0080282
S2144004705A6708225A607047000E0E40044B9B692C
S21440048013F4002F03D14FF40022014B1A6170473A
S21440049000040E4008B5044B984704490448054BF1
S2144004A09847054B984708BD7D04400000800140B2
S2144004B07C000120750A40004D044000F0B583B032
S2144004C0834B9847834B9B6913F4006F03D14FF4DB
S2144004D00062804B1A617F4B9B6913F4805F03D1A7
S2144004E04FF480527B4B1A617B4A536843F4004377
S2144004F053607A4B01261E611E631E6002251D61F5
S2144005005D631D6004221A611A631A604FF400622C
S2144005105A611A66C3F890201A604FF480515961A8
S2144005201966C3F8901019604FF4005018611863AC
S21440053018604FF480411961196319604FF4803494
S2144005405C611C66C3F890401C604FF480245C617C
S2144005501C66C3F890401C604FF400241C615C632A
S2144005601C604FF480141C611C631C604FF4001721
S2144005701F615F6304F18044A4F5FF34D4F814E1AE
S2144005804EF4806EC4F814E11F604FF480071F617C
S2144005901F63D4F814E14EEA020EC4F814E11F605B
S2144005A04FF400071F615F631F604FF080771F6145
S2144005B05F631F604FF000771F615F631F604FF0FF
S2144005C080671F615F631F604FF000675F611F6653
S2144005D0C3F890701F604FF080575F611F66C3F886
S2144005E090701F604FF000575F611F66C3F89070B1
S2144005F01F604FF080475F61C3F890705F661F6072
S2144006004FF000475F611F66C3F890701F6003F5A8
S21440061000731E615E631E601D615D631D60102574
S2144006201D611D63D4F814612E43C4F814611D6027
S2144006304FF480745C611C66C3F890401C604FF4B5
S21440064000745C611C66C3F890401C604FF4806484
S2144006501C615C631C601A615A631A6018615863B7
S21440066018601961596319604FF400421A615A6361
S2144006701A60A3F540639B6913F0005F03D14FF007
S2144006800052144B1A61164D164C174B019301231A
S214400690009300232A4615492046154EB04710239E
S2144006A02A1D00212046134CA0474FF400320B4B26
S2144006B01A60114B9847114B9847114B9847114B6E
S2144006C09847114B9847114B984703B0F0BD00BF71
S2144006D06D0F400000040E4050140E40000E0E40B9
S2144006E01C0200200C000120340001200080034042
S2144006F099074000CD084000810240009502400026
S2144007001503400091034000250440009504400036
S214400710704700BF08B51C30014B984708BD00BF66
S2144007200D39400070B505461646036A5C5CC4EB5E
S214400730C404836903EB840463696BB9D1B2204671
S214400740124B98472846124B984702281CD1310A2C
S21440075020460E4B984770BD228B511C21839E54D9
S2144007600B4B9847022805D16169238B5A1C22837C
S214400770320ACA54228B638B9A4205D300236361A4
S21440078004F11000034B984770BD00BFF90D4000C0
S2144007905D0F40000D3940002DE9F84F0E461746D4
S2144007A01D469DF82840804638B141B14AB154B103
S2144007B00B9B181C18BF012006E0002004E0002018
S2144007C002E0002000E00020DFF8F8B05922594649
S2144007D0DFF8F4A0D047681C5A2259468442CCBF62
S2144007E000200120D04728467A1E0023FF2102F829
S2144007F0011F01338342FAD9C8F8207088F8245084
S21440080088F825400B9BC8F8183031464046264BA2
S2144008109847002842D108F11C0B00215846234B2C
S2144008209847071E02DBA24634B92BE04046204BD1
S21440083098473846BDE8F88F0B9B03F11005002417
S214400840A1461A4E49462846B047071E16DA404685
S214400850174B98475846174B98470CB3C4EBC405FC
S2144008600B9B03EB85050C3D124E013C2846B047DA
S2144008701C3D002CF9D13846BDE8F88F01341C35B4
S2144008805445DFD10C4BC8F808300C4BC8F8003044
S2144008900B4BC8F804300020BDE8F88FBDE8F88F51
S2144008A03846BDE8F88F00BFE10E4000D53840001E
S2144008B03D0F4000513940002507400015074000D5
S2144008C01107400064734000A10D40002DE9F84335
S2144008D00E4617469846054620B12AB1181C18BF42
S2144008E0012002E0002000E00020DFF89C909F22DC
S2144008F04946234CA04795F82400A0224946B042DA
S21440090034BF00200120A047296A8B5DFF2B2CD1E5
S21440091095F8240000231C46DAB28A5CFF2A1CBFE6
S2144009200134E4B20133DAB28242F5D995F8253083
S214400930A3421DD3C4EBC4094FEA8909A8694246BD
S214400940394648440F4B98470146A0B92B6A9C55F8
S214400950AB6903EB090200231383AA694A44538315
S214400960AA699144C9F8143007E06FF00C0104E01E
S2144009706FF01B0101E06FF00C010846BDE8F883FC
S214400980A10D4000A90D400064734000EFF31083B2
S214400990036072B6BFF35F8F704700BFBFF35F8FD1
S2144009A0036883F31088704738B50C46054618B17F
S2144009B0081C18BF012000E0002035220349044BE4
S2144009C0984721462846034B984738BD7C734000DD
S2144009D0A10D4000BD0F400008B5024B1860024B09
S2144009E0984708BD30020020BD11400010B5044BAA
S2144009F01C68044B984701462046034B984710BD59
S214400A0030020020610F4000D111400030B585B063
S214400A10044615460389ADF8043002924FF400436D
S214400A20ADF80630039101A91438044B984754F8A2
S214400A30103C9D42C8BFE81A05B030BDB112400018
S214400A4030B585B0044615460389ADF804300292A9
S214400A5048F20103ADF80630039101A91438044B5F
S214400A60984754F8103C9D42C8BFE81A05B030BDC0
S214400A70B112400038B50D460446602208490030A1
S214400A8018BF0120074B984729462046064B9847F3
S214400A90034618B9054AA261054A6261184638BD40
S214400AA098734000A10D40001D124000410A4000CE
S214400AB00D0A400008B5014B984708BD8D1240000E
S214400AC0C1F3090102F480620A43828310467047EC
S214400AD0143008600020704770B50D461646044630
S214400AE018B1081C18BF012000E000203E2204492F
S214400AF0044B98472368324629462046984770BD9F
S214400B00B4734000A10D400070B50D46164604462D
S214400B1018B1081C18BF012000E0002047220449F5
S214400B20044B98476368324629462046984770BD2E
S214400B30B4734000A10D400038B50D46044618B1C8
S214400B40081C18BF012000E00020422209490A4B39
S214400B509847256029462046084B9847002807DBDB
S214400B604FF400432382064BE360064BA36000200D
S214400B7038BD00BFC8734000A10D40004110400082
S214400B80050C4000C90B400030B585B00C46054604
S214400B9018B1081C18BF012000E00020BD220749FC
S214400BA0074B98472368019363680293A3680393AF
S214400BB001A92846034B984705B030BDC87340008E
S214400BC0A10D4000D910400070B584B00E461546C1
S214400BD00446AD220849003018BF0120074B98470D
S214400BE0002302930196039501A9A4F10800044B43
S214400BF0984704B070BD00BFC8734000A10D4000C8
S214400C00890B400070B584B00E46154604469122C6
S214400C100849003018BF0120074B9847029600232A
S214400C200193039501A9A4F10800044B984704B02A
S214400C3070BD00BFC8734000A10D4000890B400046
S214400C402DE9F8430F469046054620B129B1101CC1
S214400C5018BF012002E0002000E00020FB220E49E1
S214400C600E4B984708350E4E2C462846B04700286F
S214400C70FAD0013F0026DFF82C90094D17F8011FE7
S214400C802046C8472046A8470028FBD001364645A0
S214400C90F4D33046BDE8F883E4734000A10D40002D
S214400CA005164000BD1540002DE9F0410F46904620
S214400CB0044620B129B1101C18BF012002E00020D4
S214400CC000E0002040F215120A490B4B9847013FBE
S214400CD000260A4D08342046A8470028FBD0204668
S214400CE0074B984707F8010F01364645F3D3304681
S214400CF0BDE8F081E4734000A10D40002D16400091
S214400D00E115400038B50D46044618B1081C18BF1A
S214400D10012000E000203E220749084B984729461C
S214400D2004F10800064B9847034618B9054A626026
S214400D30054A2260184638BDE4734000A10D4000C5
S214400D404D154000A90C4000410C400010B504462B
S214400D505D220649003018BF0120054B984704F134
S214400D600800044B9847002010BD00BFE4734000C5
S214400D70A10D40008915400038B50C46054618B10F
S214400D80081C18BF012000E0002073220249034BD4
S214400D9098472560002038BDE4734000A10D400010
S214400DA000B900BE704700BF70B50E4615460446F3
S214400DB018B121B1A2B1012002E0002000E00020DD
S214400DC032220B490B4B98476B1E1D4205D1636080
S214400DD00020A060E060266070BD6FF00C0070BD23
S214400DE0322203490020034B98476B1EEFE700BFB3
S214400DF000744000A10D400038B50D4604465B2205
S214400E000B49003018BF01200A4B9847E2686368D8
S214400E1013402268D554E3686168A2689A1A8A42E9
S214400E2084BF591AA1600133E360002038BD00BF7B
S214400E3000744000A10D40000346054A126812B9EE
S214400E400449034A1160024A10680344136070471D
S214400E5034020020E819012070B582B01F4B186894
S214400E604269116BD36A0B400193019B13F0806F6C
S214400E7002D0036800219847019B13F0007F04D0FE
S214400E80164B1868436800219847019BDBB20193D4
S214400E90019CB4FA84F4C4F1200414F0FF041BD07F
S214400EA00E4E0125013CE4B23068436904F1140259
S214400EB053F82220836892B221469847019B05FA50
S214400EC004F423EA04040194019CB4FA84F4C4F1C3
S214400ED0200414F0FF04E5D102B070BD38020020B3
S214400EE038B50C46054680220E49003018BF012012
S214400EF00D4B98470D4B6360002020640C4BA3605D
S214400F00C4F89400A06301232361E0646C61094B3C
S214400F101D60094B4FF00052C3F88020C3F8802173
S214400F201A6038BD24744000A10D40000000042023
S214400F30103254063802002000E100E0064B4FF025
S214400F400052C3F88020C3F880214369FF225A61CB
S214400F5001221A60704700BF00E100E0022070479F
S214400F6045F6C05303FB00F0704700BF00B583B0A2
S214400F7001A80D4B98470D4AD2F8883043F47003C9
S214400F80C2F88830BFF34F8FBFF36F8F01A8084B6E
S214400F909847084A136823F470631360064B9847D3
S214400FA003B05DF804FB00BF8D09400000ED00E093
S214400FB09D094000000A0E40CD0F40000160024BE4
S214400FC00B600020704700BF000400201B4A136AD5
S214400FD043F45C1343F008031362936E13F4003F2C
S214400FE0FBD0164A136A23F0700343F45C1343F0B5
S214400FF020031362936E13F4003FFBD00F4A136A2C
S21440100023F0807343F45C131362136B23F00303E3
S21440101043F001031363936E13F0080FFBD0074AA7
S214401020136B23F070031363936E13F0080FFBD01B
S214401030024B00229A6380221A60704700040E40DA
S21440104038B50D46044618B1002931D0012000E0DD
S214401050002040F23F121C491C4B984705F580651E
S21440106025601B4B9D421DD10222A3F580631A606A
S21440107023681A6912F4803F17D180221A602368C9
S2144010804FF000421A602368124A5A60236802F5FD
S214401090B71202F6F1721A634FF6FF73E380002030
S2144010A0207138BD6FF00C0038BD6FF0100038BDB1
S2144010B040F23F1204490020044B984705F58065EE
S2144010C025606FF00C0038BD3C744000A10D400018
S2144010D000440240110002002DE9F04F83B0019019
S2144010E0894604680B6800934D6890F804B018B1C0
S2144010F0201C18BF012000E0002040F243222D496A
S2144011002D4B9847236913F4803F44D000273E4632
S214401110DFF8A4A0236913F0010F3FD0A3689BB269
S2144011203DB12B70BBF1010F91BF01351B0A6B70AF
S2144011300235013717E0236913F0020F13D0019BE5
S214401140DB88009A6AB11378BBF1010F02D80132EE
S214401150009206E000994A7843EA02230A460232A1
S21440116000920136E360D4F810804FF40D721149B6
S214401170201C18BF0120D04718F0080F04D110E0FB
S214401180BB42C7D8304601E06FF01200236913F423
S214401190007FFBD00AE06FF0130007E0B742CAD2E8
S2144011A0E1E7D9F808309E42EAD2B3E703B0BDE89B
S2144011B0F08F00BF3C744000A10D4000034B6FF021
S2144011C07F425A6005221A60704700BF10E000E078
S2144011D030B40B0EABB15D1EEDB228460E4A6FF032
S2144011E07F4454609460136813F4803FFBD001380A
S2144011F0C0B2FF28F5D101F17F410131A5EB05656D
S2144012002944054B596099601A46136813F4803F89
S214401210FBD030BC704700BF10E000E038B50D464C
S214401220044610B181B1012000E000208422134919
S214401230134B984705F5C0632361124A12498B4207
S2144012400CBF1346002308E084220C4900200C4BB8
S214401250984705F5C0632361002303222A6022696C
S214401260596811602269996891632269D968516406
S21440127022691B691361002038BD00BF6C744000B2
S214401280A10D4000547440000086014010B504464D
S214401290A2220549003018BF0120044B9847236915
S2144012A004221A60002010BD6C744000A10D40005E
S2144012B070B50C46054618B1081C18BF012000E062
S2144012C00020C8225149524B98476B8803F48073DC
S2144012D09BB2002B40F09680638813F0010F48D0F5
S2144012E063889BB243F480736380238803F48062F0
S2144012F092B26AB12A691B0A43F078031B0403F4CE
S214401300FE0343F4885353602B692278DA6006E084
S2144013102A691B0403F4FE0343F4805353602B698D
S2144013206268012A0CBF032201221A6063689BB1DF
S214401330002102202A69136A13F0020FFBD0126BB9
S214401340A3685A546368023B8B4204BF2B691860FB
S214401350013163689942EDD32A69136A13F0010F8D
S214401360FBD06B8823F480731B041B0C6B8000201F
S21440137070BD63889BB243F480736380238803F414
S214401380806292B282B12A691B0A43F078031B043A
S21440139003F4FE0343F4807353602B692278DA60CB
S2144013A063680020DBB105E02A691B0403F4FE03F2
S2144013B05360F5E7002001466FF001062A69136A7C
S2144013C013F4807F03D113F0040FF8D000E03046CA
S2144013D0A3685B5C5363013163689942EED36388CC
S2144013E013F4004F07D02B6902221A602A69136A49
S2144013F013F0010FFBD06B8823F480731B041B0C87
S2144014006B8070BD6FF0050070BD00BF6C7440000F
S214401410A10D400010B5044640F232221E4900306D
S21440142018BF01201D4B98471D4B9C4223D003F507
S214401430A0339C4221D003F580439C421FD0A3F5A5
S21440144040439C421DD003F580439C421BD0A3F5ED
S214401450A0339C4219D003F560339C4217D0A3F5C5
S21440146040439C4215D040F249220B4900200B4B8A
S2144014709847002010BD002010BD012010BD02205E
S21440148010BD032010BD042010BD052010BD062051
S21440149010BD072010BD00BFA4744000A10D400041
S2144014A000C2004010B5044640F2B2220B4900305C
S2144014B018BF01200A4B984720460A4B984748B128
S2144014C0012809D04FF42F7204490020044B984756
S2144014D0002010BD002010BD012010BDA4744000A7
S2144014E0A10D40001514400010B5044640F2C92234
S2144014F01149003018BF0120104B98472046104B2A
S2144015009847104B03EB0013DA68012111600E4A2E
S214401510C4F8E420002060606062A062AC222260D2
S2144015204FF4807222604FF4002222605A68626054
S2144015309B68236210BD00BFA4744000A10D40000C
S214401540A51440008474400000415355F8B50C463D
S2144015500A4E0746CC223146003018BF0120084DBF
S214401560A847CD223146201C18BF0120A84704F5C5
S21440157000703860034B9847F8BD00BFA474400025
S214401580A10D4000E914400070B50A4E04464FF4E1
S2144015908B723146003018BF0120074DA84724689B
S2144015A040F2F5223146201C18BF0120A8475023A0
S2144015B0236070BDA4744000A10D400038B50C46B1
S2144015C005464FF4DC720449003018BF0120034B37
S2144015D098472B68DC6138BDA4744000A10D4000DC
S2144015E010B504464FF4E5720449003018BF012098
S2144015F0034B984723689869C0B210BDA474400056
S214401600A10D400010B5044640F2D3120549003003
S21440161018BF0120044B984723685869C0F3400020
S21440162010BD00BFA4744000A10D400010B5044694
S21440163040F2E5120549003018BF0120044B984798
S2144016402368586900F0010010BD00BFA474400034
S214401650A10D400000207047800000F160400378F4
S21440166013F0010FFBD00170704700BF0D4B1B6895
S21440167013F0010F15D070B505460C460A4B1B6893
S21440168013F0010F0CD0097831B1084E2846B04708
S21440169014F8011F0029F9D100212846034B98472A
S2144016A070BD7047800E00E0000E00E05916400006
S2144016B02DE9F043ADF5797D884B9847884E022357
S2144016C0336340F6B830874DA8474FF4FA60A847D2
S2144016D0854C4FF48018C4F830804FF40027676379
S2144016E04FF4FA60A847C4F834804FF4FA60A8472D
S2144016F027634FF4FA60A8474FF4000323634FF084
S214401700807323634FF4800363634FF4FA70A847F3
S2144017104FF4806333634FF4006333634FF40053F6
S21440172033634FF4804333634FF4004333630A20FC
S214401730A84701226D4B1A7000226D4B1A70E36B5E
S21440174013F0804F32D14FF4806232634FF4006220
S21440175072634FF4005232634FF4804232634FF468
S21440176000423263E36B13F4802F06D001263046E6
S214401770A847E36B13F4802FF9D1594B4FF480629E
S2144017801A634FF400621A634FF400521A634FF420
S21440179080421A634FF400421A636420514B9847C4
S2144017A00122534B1A700022504B1A704FF4FA60C5
S2144017B04C4CA0474FF47A70A0474E484E4B984743
S2144017C04E4B9847012800D1FEE704204C4B9847E3
S2144017D0012800D1FEE704214A484B4B984700B108
S2144017E0FEE702223E4B5A63EBAC484B93E80300BD
S2144017F084E8030021460020DFF84881C047444D76
S21440180095E80300D290ADF84C135E2200210DF20D
S2144018104E30404B9847404E22A930463F4B984763
S21440182030463F4B98474FF47A702E4EB0470D22C5
S2144018303C4922983C4FB847C820B04710223B4905
S2144018402298B847C820B0470E2239492298B84750
S21440185041F28830B0476435EFB2F8AD05F8987D70
S2144018601E2229462298334B98472A46324920461C
S214401870324B984721460020C047304E002445460C
S2144018800DF18C08164A936B03F0010383F00101B7
S214401890116353630DF5787909F8987D46224946D9
S2144018A02298244B98474A462549EBA8B047EBA9CF
S2144018B02046A8470DF247330DF28D3C00221046D5
S2144018C04FF0460913F8011F2C293DD123A909FBE7
S2144018D000118C54013022463DE000BF65014000B7
S2144018E000100E40ED094000000E0E40200400207F
S2144018F018040020E91B4000F1294000FD33400059
S214401900C1344000000000204136400028754000A9
S214401910C07440000B57400064000120790D400021
S2144019204D0D400030754000D90A400040754000DB
S21440193054754000090B4000647540000D5D400042
S214401940707540006D1640000DF18C0E09FB00EEE0
S2144019500EF8021001329C45B4D1D2AA6649EBA8D3
S214401960B047EBA92046A84742466449EBA8B04793
S214401970EBA92046A8470DF1D2026149EBA8B04733
S214401980EBA92046A84746AA5E49EBA8B047EBA974
S2144019902046A8470DF5AF725B49EBA8B047EBA9C8
S2144019A02046A84769AA5949EBA8B047EBA9204664
S2144019B0A8470DF5F5725649EBA8B047EBA9204667
S2144019C0A847022253490DF5AF70534B984740B194
S2144019D0022252490DF5AF704F4B984700287FF4CE
S2144019E051AF0DF5AF724E49EBA84E4DA847EBA947
S2144019F000204D4CA0470B224C4922984C4B984710
S214401A009DF818C1ACF1300C0CEB8C0C9DF81931DC
S214401A10303B03EB4C0C9DF81B81A8F1300808EBDB
S214401A2088089DF81C3103EB48089DF8D2E0AEF1DB
S214401A30300E0EEB8E0E9DF8D330303B03EB4E0E41
S214401A409DF8D570303F07EB87079DF8D630303B82
S214401A5003EB47079DF8D800303800EB80009DF830
S214401A60D930303B03EB40009DF81E21A2F13001F7
S214401A709DF81F31303B642606FB03F34FF47A7221
S214401A8002FB01329DF82031303B03EB830302EB2F
S214401A9043039DF821211344A3F29C731E93A8F19F
S214401AA031031D93CDF870C0CDF86CE01A971990AD
S214401AB04FF0FF3321930DEB06001E4B9847074629
S214401AC002461D496846A84769460020A0471B4B6A
S214401AD01F601B4F4FF00108C7F8308040F6B83003
S214401AE0184DA847C7F834803046A8471649002006
S214401AF0A047164B9847FEE7647540007C7540004B
S214401B008C75400098754000A4754000B475400040
S214401B10BC754000C8754000995D4000CC754000DB
S214401B20D07540000D5D40006D164000E0754000E9
S214401B30D90A4000D5584000EC754000A00001206E
S214401B4000100E40ED09400000764000C5284000D9
S214401B5038B5037803F01002D2B2002A14BF03242B
S214401B60062403F00703012B18D14378012B09D133
S214401B70035D542B04D0552B0CBF0120FF2038BDED
S214401B80002038BD022B22D1022213492044134B99
S214401B909847002814BFFF20022038BD022B11D1E1
S214401BA0044445782A460E4920460C4B984780B157
S214401BB02A460C492046094B9847002814BFFF2068
S214401BC0032038BD032B14BFFF20042038BDFF2060
S214401BD038BD032038BD00BF18764000A1564000EF
S214401BE01C7640002C76400010B504460C4B9847B7
S214401BF0032811D02378D12B0ED1E378542B02D072
S214401C00552B05D008E0A37823440022DA7103E080
S214401C10A378234400221A710023237010BD00BF0E
S214401C20511B40002DE9F04184B0734F734C744D06
S214401C30DFF8088200234FF0FF3219463868714EAD
S214401C40B047002800F0D4803B79002B64D07B79E5
S214401C501BB9BB79002B00F0BD806B4B93F8482333
S214401C6002F10F0103EBC10001264671B86843F844
S214401C7031006F21995402F196016448006843F898
S214401C802100324483F84823614B9847614B4FF418
S214401C9080621A634FF400621A634FF400521A636C
S214401CA04FF480425A634FF400421A63E36B13F4D6
S214401CB0803F05D03046A847E36B13F4803FF9D108
S214401CC0544B4FF480621A634FF400621A634FF429
S214401CD000521A634FF480421A634FF400421A636C
S214401CE04D4B98470A20A84701233B7300263E7178
S214401CF04A4B984741F28830C0477E71BE713046A5
S214401D00474B9847C2B2474901A8474B984701A955
S214401D103046464B98475DE03B7B002B5AD0E36B02
S214401D2013F0804F56D16420A847E36B13F0804FE2
S214401D3050D1374B9847344B93F8482363219954F6
S214401D4002F196013148006843F8210002F10F0184
S214401D50002043F8310003EBC1014871013283F89B
S214401D6048232C4B4FF480621A634FF400625A6348
S214401D704FF400521A634FF480421A634FF4004205
S214401D801A63E36B13F4802F06D001263046A8472B
S214401D90E36B13F4802FF9D11E4B4FF480621A6325
S214401DA04FF400621A634FF400521A634FF48042B5
S214401DB01A634FF400421A63174B98476420A847AB
S214401DC001233B7100233B73144B9847042118486A
S214401DD0184B98470020124B9847C2B2114901A8A9
S214401DE0114B984700231A4619463868124EB0479A
S214401DF00A20C0471EE700BF14040020000E0E4015
S214401E00ED094000A9454000A8000120A00001209F
S214401E10154B400000100E40854C4000C136400037
S214401E2005514000A07640000D5D40006D16400014
S214401E300400002041364000CD414000854D400022
S214401E40F0B585B0194C1A4D1A4E00234FF0FF32AC
S214401E5019462069A847E8B10020B047164B1B68D2
S214401E60C2B2164901A8164FB847237B2BB9237D2B
S214401E701BB10121134A116303E00122114B5A633F
S214401E80002383F00103237500231A461946206970
S214401E900D4FB847237D23B140F6B8300B4B9847DB
S214401EA0D3E71420094B9847CFE700BF140400201F
S214401EB0A945400005514000A0000120B4764000EE
S214401EC00D5D400000100E40CD414000854D400065
S214401ED0F0B585B00F4C104D104F00234FF0FF3239
S214401EE01946A069A84780B10020B847C2B20C493D
S214401EF001A80C4B984700231A461946A0690A4E7B
S214401F00B0470A4A1368013313604FF47A70084B9F
S214401F109847E2E714040020A945400005514000D8
S214401F20CC7640000D5D4000CD414000A000012031
S214401F30854D4000F0B585B00E4C0F4D0F4E00233A
S214401F404FF0FF321946A069A84778B1F36BF36BA0
S214401F5000200B4B9847C2B20A4901A80A4B984743
S214401F6000231A461946A069084FB8470A20084B6E
S214401F709847E4E714040020A9454000000E0E40B0
S214401F8005514000D87640000D5D4000CD414000F0
S214401F90854D4000F8B5304C304D314F00234FF062
S214401FA0FF321946E069A847002850D002237B63D9
S214401FB02C4B98472C482D4B984706462C4B984719
S214401FC0002E3BD0284B9B7813F0F00F2AD1264B9F
S214401FD05B78052B19D0244B1B78B3B1224A517835
S214401FE043EA0123917843EA01410420214B984774
S214401FF01C4B9847204B984704212048204B984735
S2144020001B4B984702233B6318E002237B63154B28
S2144020109847194B984704211848194B9847144B32
S21440202098470BE002237B630E4B9847124B98472A
S21440203004211248124B98470D4B98470020114BED
S214402040984700231A461946E0690F4EB047C82005
S2144020500E4B9847A2E700BF14040020A945400055
S21440206000100E40154B40009C00012005374000F4
S214402070854C4000A5374000C13640000400002093
S2144020804136400005514000CD414000854D40005E
S2144020902DE9F04F2DED048BADF25C5DA04B643323
S2144020A0DBB20593DFED9F8A9FED9F8A9FED9F9A57
S2144020B000234FF0FF3219469D48006A9D4CA047CA
S2144020C0002800F044829A4B93F82430002B00F00E
S2144020D028820027964B83F82470914B93E80300A0
S2144020E03490ADF8D4105E2239460DF1D600924BAE
S2144020F09847DFF88482C047904C94F84833622271
S214402100E254E218012182F83C1003F19602DFF80F
S214402110A0A2DAF8001044F82210013384F84833BD
S214402120874EB0474FF47A70864DA847C04794F81C
S21440213048337422E254E2184FF00E0982F83C907D
S21440214003F19602DAF8001044F82210013384F8BE
S2144021504833B0477C4C0AA920467C4B98472046DB
S2144021607B4B984703227B490A987B4CA0474FF409
S2144021707A70A8470D2279490A98A047C820A847F0
S214402180102277490A98A047C820A8474A4675496A
S2144021900A98A04741F28830A847C047DDF8149017
S2144021A08DF8D0901E2234A90A986F4B9847B047B6
S2144021B034AA6E491BA86E4B98471BA938466D4BF0
S2144021C098476B4E3C466B4D0DF527786A4B9847C3
S2144021D08DF8D090462234A90A98634B984734AA83
S2144021E066491BA8B0471BA92046A8470DF1CF0358
S2144021F00DF2151C002210464FF0460A13F8011F38
S2144022002C2906D1A7A90AFB00118C54013022467E
S21440221006E00DF5277E0AFB00EE0EF802100132AE
S2144022206345EBD134AA51491BA8B0471BA92046A9
S214402230A847424652491BA8B0471BA92046A84774
S2144022400DF2E2224F491BA8B0471BA92046A847DB
S214402250CAAA4D491BA8B0471BA92046A8470DF25D
S2144022606E324A491BA8B0471BA92046A847EDAA8C
S21440227047491BA8B0471BA92046A8470DF2FA328B
S21440228044491BA8B0471BA92046A84702224249FA
S2144022900DF26E30414B984758B90DF26E324049B8
S2144022A01BA8B0471BA92046A8470137042F00F3B8
S2144022B09381234B98474FF42F70224B984785E7DE
S2144022C019F8013F623B122B00F28A80DFE803F0E8
S2144022D01E1488888888888888887C88880A8888A1
S2144022E088887200DAF87830D8F800202D494DA852
S2144022F01F4CA047C4B273E0DAF87830D8F8002014
S21440230029494DA81A4CA047C4B269E099F83C3018
S214402310D8F8002025494DA8154CA047C4B25FE028
S2144023203876400000007042000061450024744941
S21440233014040020A94540000B574000A800012087
S214402340854C4000854D400064000120790D4000DA
S2144023504D0D4000EC764000D90A400030754000F4
S2144023604075400054754000090B400064754000BD
S2144023700D5D40006D164000154B400070754000E6
S2144023807C7540008C75400098754000A4754000F0
S214402390B4754000BC754000CC754000995D400067
S2144023A0D0754000F076400000774000107740003F
S2144023B0A000012099F83C30D8F8002066494DA886
S2144023C0664CA047C4B20BE0654B1B680393CDF840
S2144023D000B0049B039A63494DA8604CA047C4B222
S2144023E07FA8614B9847C0F19F00844220D905EBF7
S2144023F0850007EB40107FA908305C4B98470135B5
S214402400132DA8BF1325A02200217FA8584B98471C
S2144024103A68584966A8514B9847092266A97FA84A
S214402420554B984722464DA97FA8544B984704E001
S21440243022464DA97FA8514B98477B6823447B6032
S21440244001364F4B93F8483308F104080AF1080A5E
S214402450B3423FF735AF9B4605EB85004001083059
S214402460484E7FA93044414B98475B462A464649EA
S2144024701BA83A4CA0471BA90020444CA04706F195
S21440248008010020A04706F1A8010020A04706F555
S214402490A4710020A04706F5F4710020A04701353E
S2144024A0002D3ADD3A4E0027DFF82881394CC047E8
S2144024B039490020354B9847032238490A98A047A7
S2144024C0374B013BFDD10A2236490A98A047344B88
S2144024D0013BFDD1142234490A98A047334B013BB7
S2144024E0FDD13046204B984782B231460A98A047E5
S2144024F02F4B013BFDD101222E490A98A0470922C5
S2144025002D490A98A0472D4B984742F210702C4B05
S21440251098470137A036BD42C9DC0022184B83F8E5
S21440252048230020274B9847154B93F84833C2B2B0
S21440253025491BA8094CA0471BA90020134B9847C8
S21440254000231A4619462148006A214CA0474FF4FA
S2144025507A701B4B9847ABE51C7740000D5D4000FA
S214402560A00001202C774000655D4000555D40008E
S2144025700B57400040774000C35D4000755D40000B
S214402580A8000120F8030120487740006D1640005F
S21440259000040120D90A400068774000EC764000ED
S2144025A0A08601007C7740008877400020A1070085
S2144025B0400D0300A0774000A4774000854C4000C3
S2144025C0854D400005514000B0774000140400207F
S2144025D0CD414000154B4000A74B98474FF42F7015
S2144025E0A64CA0470B22A6490A98A64B98474FF4FC
S2144025F07A70A0479DF8B4338DF8183000248DF8D3
S21440260019409DF8B6338DF82C309DF8B7338DF8C9
S2144026102D309DF8B8338DF82E308DF82F400DF1C3
S21440262020099DF8BA338DF820309DF8BB338DF8DD
S21440263021308DF8224017AF9DF8BD338DF85C30C1
S2144026409DF8BE338DF85D309DF8BF338DF85E3013
S2144026509DF8C0338DF85F309DF8C1338DF86030FB
S2144026608DF86140884D0197CDF800900BAB06AAD7
S21440267029461BA8DFF844A2D0471BA92046DFF80E
S21440268040B2D8479DF8FA338DF81C308DF81D407F
S2144026909DF8FC338DF830309DF8FD338DF83130A1
S2144026A09DF8FE338DF832308DF833400DF1240816
S2144026B09DF800348DF824309DF801348DF825308F
S2144026C08DF8264019AE9DF803348DF864309DF899
S2144026D004348DF865309DF805348DF866309DF8E5
S2144026E006348DF867309DF807348DF868308DF8DD
S2144026F069400196CDF800800CAB07AA29461BA876
S214402700D0471BA92046D84706A8604DA8470D903D
S2144027100BA8A8470E904846A8470F903846A847AB
S214402720109007A8A84711900CA8A84712904046BA
S214402730A84713903046A8471490DDED0E7A9DEDDD
S2144027400F7A109BB8EEC77AC7EE286AF8EEE77A9B
S21440275036EEA77A07EE903AF8EEE76AC6EE887A43
S21440276077EE277ACDED157ADDED127A9DED137A68
S214402770149BB8EEC77AC7EE286AF8EEE77A36EECC
S214402780A77A07EE903AF8EEE76AC6EE887A77EED2
S214402790277ACDED167ADDED157A67EE897AFCEE6E
S2144027A0E77ACDED047A9DED167ADFED397A67EE5D
S2144027B0277AFCEEE77ACDED037A364D95F8483326
S2144027C06C22EA5403F196023349096845F8221010
S2144027D0013385F8483331492046D8470327304BE4
S2144027E01F604D944FF06008424621464EA82D4E3D
S2144027F0B04766944246214667A8B0477F949C22DD
S214402800214680A8B0473A4627494DA8D0470922D6
S2144028104DA97FA8254B984795F8484364B105F1E4
S214402820FF3909F2592809F1010A0026344635468F
S2144028301B4FDDF80CB043E51D4D7FA928461D4BC8
S2144028409847234600221C491BA81C4CA0471BA99E
S21440285000201B4CA04729460020A04705F1A001B8
S2144028600020A04705F5A0710020A04705F5F071AF
S2144028700020A047012515E6854C4000854D4000C8
S214402880E0754000D90A4000C87740003D564000F9
S2144028900050C347A8000120A0000120E877400070
S2144028A0F80301200B57400040774000C35D4000CE
S2144028B000040120555D4000487740000D5D400013
S2144028C06D16400030B583B00120344CA047344DDF
S2144028D0A8610120A0470120A0470120A047286109
S2144028E00120A047E8610120A04728600120A047BA
S2144028F02862AB6903B9FEE70023019301220092E8
S2144029004FF4007227492848284CA047012800D099
S214402910FEE700230193052200924FF400722449FB
S2144029202448224CA047012800D0FEE7002301930C
S214402930032200924FF400521F4920481B4CA047E8
S214402940012800D0FEE700230193032200924FF4B3
S21440295000721B491B48154CA047012800D0FEE7D3
S21440296000230193042200924FF4805216491748E0
S2144029700E4CA047012800D0FEE700230193032217
S21440298000924FF4007212491248084CA0470128A2
S21440299000D0FEE7104B984703B030BDA14340003F
S2144029A01404002000784000351F4000D148400005
S2144029B008784000D11E400010784000912040002A
S2144029C01C784000411E400024784000951F40007F
S2144029D030784000251C4000914A400008B5024926
S2144029E00020024B984708BD407840006D164000D6
S2144029F0014B1860704700BFA400012008B501389D
S214402A0003281BD8DFE800F002080E140D4B984749
S214402A100D4A0E4B1A6008BD0D4B98470D4A0B4B9E
S214402A201A6008BD0C4B98470C4A084B1A6008BD04
S214402A300B4B98470B4A054B1A6008BD0022034BC8
S214402A401A6008BD792A40008D2A40003C040020C8
S214402A50152C4000292C4000F12D4000252E40002A
S214402A60352F4000492F400010B5024C246804B171
S214402A70A04710BD3C040020024B00221A70024AB8
S214402A801A617047400400208C100120F8B51546A6
S214402A901C46002323805A4B1B78032B00F2AE8043
S214402AA0DFE803F0020F2E79564B186828609A88A4
S214402AB09B79AA80AB71072323800122504B1A7062
S214402AC0F8BD072940F09A808379002B40F0968025
S214402AD04B4B02781A7142785A71D0F80220C3F8EC
S214402AE00620484A32F8081F92782980AA70D3F800
S214402AF00620C5F803200722228002221A70F8BD5D
S214402B007B297BD190F87A30002B77D1837AE12BE2
S214402B1074D107E0C218527802321344DBB27B2BE2
S214402B2001D9F8BD0E231946C25C032AF2D1C21859
S214402B30527896B2324FFE81C3F16803DBB29FB241
S214402B40BE420ED82E4B1C690231014420462E4B05
S214402B5098472E4B1B68002B50D03146204698474E
S214402B60F8BD274EB78102311A4601443069264BDC
S214402B7098471022B272264B03CB286069601B88A8
S214402B802B816A70D6F80630C5F80A300E232380AB
S214402B9003233370F8BD0A2930D1437A002B2DD158
S214402BA0174BDE899B89F21A072A0CDC14490C69FC
S214402BB0411CE018144B9847144B1B68F3B1314640
S214402BC020469847F8BD0E4A1169CE1850F8017F46
S214402BD04068CF50706008339381937A0133DBB2FC
S214402BE093720B4E03CE28606960318829816B70E2
S214402BF0D2F80630C5F80A300E232380F8BD00BF51
S214402C00400400205C784000BF564000A4000120ED
S214402C1068784000024B00221A70024ADA60704719
S214402C20540400208C100120F8B515461C4600239D
S214402C3023806B4B1B78042B00F2D080DFE803F038
S214402C40030D2C419D0030232B7000236B70022314
S214402C5023800122624B1A70F8BD112940F0BE80D5
S214402C60037C002B40F0BA8002785E4B1A704278A4
S214402C705A7082789A700279DA7042791A7182793B
S214402C805A71C2799A7130232B7003236B700223DA
S214402C902380534A1370F8BD112940F09F80037C6F
S214402CA0002B40F09B800378E12B40F09780302348
S214402CB02B7004236B70022323800322484B1A7028
S214402CC0F8BD112940F08A80037C43B1F8BDC21894
S214402CD0527802321344DBB2112B01D9F8BD0023DF
S214402CE01946C25C032AF2D1C2185278FF2A1AD17A
S214402CF03B4EC71897F802E0FA7802EB0E22328174
S214402D00C3F10C039AB2F28004310144F068364BAA
S214402D1098470823337130222A706B700223238031
S214402D2004233370F8BD96B22D4F3E81C3F10E0793
S214402D30BA420EDC2A4BDC680231014420462A4B5C
S214402D4098472A4B1B68002B48D031462046984768
S214402D50F8BDC3F10E039AB2214EF280023101440F
S214402D60F068214B98470823337130222A706B70E5
S214402D700223238004233370F8BD11292ED1037C0F
S214402D8063BB174B1E89DB88F21A0F2A0CDC1449EA
S214402D90CC680146E018144B9847144B1B68EBB1BF
S214402DA0314620469847F8BD0D4AD668F118D0F807
S214402DB000C0D0F804E08768C06846F803C0C1F891
S214402DC004E08F60C8601033D38013790433DBB2DD
S214402DD0137130222A706B7002232380F8BD00BF27
S214402DE05404002084100120BF564000A400012057
S214402DF0024B00221A70024A5A617047640400204F
S214402E008C1001200246054B0068516803C3044BF2
S214402E10C3F80200C3F80610704700BF68040020DD
S214402E200C000020F8B515461C46002323803D4B79
S214402E301B78012B0FD013B1022B31D0F8BD3A4E80
S214402E400FCE28606960AA60EB60102323800122C1
S214402E50344B1A70F8BD014411F8013C002B5FD189
S214402E604378072B5CD1837A002B59D1C37A002B49
S214402E7056D1827E2B4B1A821F460023FB814FF091
S214402E80010E87F80CE0284E0FCE28606960AA60D5
S214402E90EB6085F80FE01023238002233B70F8BDDB
S214402EA0014411F8013C002B3AD14378072B37D127
S214402EB0837A002B34D1C37A002B31D1194B1E8A2A
S214402EC0DB89F21A102A0DDC16494C6900F10D0117
S214402ED0E018164B9847164B1B680BB331462046F6
S214402EE09847F8BD0F4A5669F11850F80DCFD0F8FC
S214402EF004E08768C06846F803C0C1F804E08F6005
S214402F00C8601033D381167B0136F6B21673064F6F
S214402F100FCF28606960AA60EB60EE7310232380B1
S214402F20F8BD00BF640400200C000020BF564000DF
S214402F30A4000120024B00221A70024A5A617047D0
S214402F407C0400208C1001202DE9F04707460C46F3
S214402F5015461E4600233380944B1B78072B00F201
S214402F602281DFE813F008001400380052006800A1
S214402F70A600BA00E6008E4B07CB28606960AA60C0
S214402F800C2333800122894B1A70BDE8F087881ED7
S214402F90022288493844884B984770B9844B53F886
S214402FA0100F28609A889B79AA80AB7107233380DC
S214402FB003227E4B1A70BDE8F0877D4B07CB286016
S214402FC06960AA600023EB720C2333800222774BA1
S214402FD01A70BDE8F087881E022276493844764B40
S214402FE09847002840F0DF80714B53F8100F286058
S214402FF09A889B79AA80AB710023EB7007233380B5
S21440300003226A4B1A70BDE8F087881E022269497F
S2144030103844694B9847002840F0C580644B53F8C5
S214403020180F28601B792B710523338004225F4BD1
S2144030301A70BDE8F087881E02225E4938445E4B0F
S2144030409847002840F0AF80112C40F0AC80BC7808
S214403050564B1C71F9783A7902EB0122DA8079797D
S214403060BA7902EB01221A8197F809E083F80AE060
S214403070B97AD972F87A3A7B02EB00229A817A7B47
S2144030809A73BA7BDA734A4B53F8200F28609A88B3
S2144030909B79AA80AB71102C04BF0023EB7085F897
S2144030A005E0A971072333800522404B1A70BDE81E
S2144030B0F087881E02223F4938443F4B98470028F5
S2144030C071D13E4B186828600523338002232B714C
S2144030D00622364B1A70BDE8F087881E0222354914
S2144030E03844354B984700285DD13A787B7803EBD7
S2144030F002239BB22D4A538240F25232934252D818
S2144031002A4900220A822A4A52F8180F2860127961
S2144031102A710222EA70CA88511E8B42C8BF0B46EB
S214403120DBB22B71052333800722204B1A70BDE893
S214403130F087881E02221F4938441F4B98470028B4
S21440314031D1DFF86890D9F814A0B9F81080A21EE3
S21440315039460AEB08001A4B9847A8F10201214469
S21440316089B2A9F81010B9F81230994206D1154B19
S2144031701B68C3B150469847BDE8F0870C4A52F8E2
S214403180180F286012792A71C8B2821CEA70074A62
S214403190D288591A541EA142CCBF23461B1ADBB212
S2144031A02B7105233380BDE8F08700BF7C040020E8
S2144031B07478400080784000A15640008C784000EB
S2144031C0BF564000A4000120F8B50D4616461F46DF
S2144031D0069C2246084B98472388AB420AD1642374
S2144031E0224639463046054DA8472088B0FA80F03A
S2144031F04009F8BD0120F8BDE537400039384000A9
S21440320038B51446034DA8472088B0FA80F04009E8
S21440321038BD00BF393840002DE9F04FADF50D7D83
S214403220C0F307240023ADF82A30684B186808908E
S2144032309A889B79ADF824208DF826302046644B3A
S2144032409847032C1FD10DF5977400944FF4807364
S2144032504CAA072108A85F4DA847642322464FF48E
S21440326080714CA85C4CA0479DF83031612B0AD148
S2144032709DF83131082B06D19DF833311BB90DF539
S2144032809B70564B9847DFF8449109F144044FF041
S21440329000080DF12A030DF12F029DF832110DF2B0
S2144032A033104F4DA84702224E4B1A639DF86521B6
S2144032B09DF866519DF867619DF868E14A4B93F822
S2144032C000B04A4B93F800A0494B93F800C009F170
S2144032D00803CDF814800021049103910F46012184
S2144032E0069113F8011B91421BD11978A94218D1B7
S2144032F05978B14215D19978714512D1D9780129BA
S21440330009D002290CD10121059106998C460491D9
S2144033108A460F4605E001210391069FBB4600E022
S2144033200127A342DDD1039B13B12F4B83F800B096
S214403330049B13B12D4B83F800A0059B13B12C4B77
S21440334083F800C0B7B12B4B1B789BB10122254BAD
S2144033501A639DF865219DF866311B0403EB0263F2
S2144033609DF8672103EB02239DF868211344224A07
S214403370136008E01D4B83F800801B4B83F80080E9
S2144033800122184B5A63BDF82A30D3B18DF82C80F1
S2144033901A0A8DF82D208DF82E30D91C0DF597750C
S2144033A000954FF480734CAA89B20BA8094EB047DB
S2144033B04FF47A732A464FF480714CA8064DA847BE
S2144033C067E70DF50D7DBDE8F08F00BF9C784000A7
S2144033D0FD294000C931400001324000052E400022
S2144033E0692A400000100E401A04002019040020EC
S2144033F038040020180400201C040020F0B5ADF569
S214403400077D284B33F8442F9B78ADF814228DF86F
S2144034101632254B98470B24244B1E684FF0000568
S21440342007E0631E13F0FF0434D04FF4FA70204BCD
S21440343098470396ADF80A500DF10A02042103A8F6
S2144034401C4B9847BDF80A30042BEAD164230DF193
S2144034500A024FF4807104A8174FB847BDF80A30E7
S214403460002BDED00DF5897300934FF4807345AA88
S214403470032185A8114CA0479DF81431402B0BD151
S2144034809DF81531012B09D19DF81701003018BF62
S214403490012004E0012002E0012000E001200DF5BB
S2144034A0077DF0BD9C784000C1374000E47840007E
S2144034B0ED094000E537400039384000C93140004A
S2144034C070B5ADF50C7D06465B4C07AB254655F80A
S2144034D04C0F6968AA6807C3A989AA7B19809A70A5
S2144034E0234633F85C2F9B78ADF818208DF81A30B9
S2144034F0002E00F08780042E15D10DF12E03009388
S2144035004FF480730CAA032106A84C4CA0479DF8A4
S21440351030304F2B78D19DF83130022B76D19DF844
S21440352033301BB174E016F0040F29D007AB4DAC16
S2144035300FCB07C424F8023B1B0C237021238DF8C5
S214403540303100238DF8313110238DF83231052388
S2144035508DF833310DF12E0300934FF480730CAA8F
S21440356013214CA8354CA0479DF83030412B51D103
S2144035709DF83130002B4FD19DF83330002B4DD184
S2144035802D4C04AB224652F8600F516803C30DF130
S2144035902E0600964FF480730CAA082104A8274DE7
S2144035A0A847A06E039034F8442FA378ADF80820BF
S2144035B08DF80A3000964FF480730CAA042103A8B5
S2144035C0A8479DF83030402B2AD19DF831304BBB70
S2144035D09DF8333043BB0DF12E0300934FF48073B8
S2144035E00CAA032102A8A8479DF83030402B1DD1D5
S2144035F09DF83130012B1BD19DF83300003018BFA9
S214403600012016E0002014E0012012E0012010E026
S21440361001200EE001200CE001200AE0012008E035
S214403620012006E0012004E0012002E0012000E045
S21440363001200DF50C7D70BD9C784000C9314000DE
S21440364030B5ADF5057D21238DF8103103238DF877
S21440365011314B0001338DF812318DF8131171B1D1
S214403660421E44AB4C1EE4B2013403EB4404012535
S21440367012F8010F18715D710233A342F8D1490068
S2144036800DF10E0300934FF4807304AA043144A84E
S2144036900A4CA0479DF81030412B09D19DF81130B7
S2144036A0032B07D19DF81300003018BF012002E01D
S2144036B0012000E001200DF5057D30BDC9314000F8
S2144036C010B5C4B00C4B186843900C4C0DF10A036F
S2144036D000934FF4807303AA042143A8A047002810
S2144036E0F4D164230DF10A024FF4807103A8044C10
S2144036F0A047002044B010BD0C794000C9314000BE
S2144037000132400030B5C3B0054664230DF10602D1
S2144037104FF4807102A8214CA047B8BB9DF80830F2
S214403720612B33D19DF80930052B02D0032B2DD1C8
S2144037300AE09DF80C302B709DF80D306B709DF8AC
S2144037400E30AB70012027E000232B709DF80C3024
S2144037506B709DF80D30AB70BDF8063002AA13446E
S21440376013F8013C022B16D10C4C64230DF10602D3
S2144037704FF4807102A8A047BDF8063002AA134451
S21440378013F8013C022BF0D0012005E00222044B46
S2144037905A63002000E0012043B030BD01324000B3
S2144037A000100E4000B583B00191042802D10846AF
S2144037B0024B984703B05DF804FB00BF1932400047
S2144037C070B5064C4FF4804525630A20044EB0473A
S2144037D065630A20B047256370BD00BF000E0E40EB
S2144037E0ED094000F0B583B007460D4616460C4C32
S2144037F001A920460B4B984720460B4B98474FF461
S214403800006228212046094B98472A4639460198A7
S214403810074B984735800A20064B984703B0F0BDC3
S2144038207C000120D10A4000B50A4000C10A400091
S214403830D90A4000ED09400070B582B03BB1194648
S2144038404FF4AF7303FB01F300241C4E08E01B4CFF
S214403850E36B002BFCDA15E0651C9C420FD82C4627
S214403860F56B002DF8DA0DE0E11C0198144B9847F3
S214403870A378033333801EE0032333801BE000230A
S214403880138018E0164604460E4D01A928460E4BF6
S214403890984728460D4B98474FF400622821284603
S2144038A00B4B9847032221460198054B9847A27830
S2144038B0002AE1D0D8E702B070BD00BF000E0E402F
S2144038C0090B40007C000120D10A4000B50A4000A8
S2144038D0C10A400038B505460C4635220849012C39
S2144038E08CBF00200120074B984721460120064BFD
S2144038F098472860002814BF00206FF0130038BD9A
S21440390010794000A10D40008941400010B50D4B94
S2144039105B68C3F308034BB1002100680A4B984725
S214403920002814BF00206FF0020010BD00231A4686
S21440393019460068054CA047002814BF00206FF0C9
S214403940020010BD00ED00E0CD444000CD414000F7
S214403950036843B110B504461846044B9847002305
S2144039602360002010BD0020704700BF8147400004
S21440397000F1080343604FF0FF328260C36003618A
S21440398000230360704700BF00230361704700BFF9
S21440399043684B609A688A609A685160996008618B
S2144039A0036801330360704730B40D68B5F1FF3FDC
S2144039B001D1026907E000F1080200E01A465368A8
S2144039C01C68A542FAD253684B6099608A60516081
S2144039D0086103680133036030BC7047036942687E
S2144039E0816891608268416851605A68904204BF1D
S2144039F082685A6000220261186801381860704771
S214403A000B4B1B68B3F1FF3F08D04FF4807383F332
S214403A101188BFF36F8FBFF34F8FFEE74FF480736D
S214403A2083F31188BFF36F8FBFF34F8FFEE700BF5E
S214403A301C00002006480068006880F3088862B6CC
S214403A4061B6BFF34F8FBFF36F8F00DF00BF00003C
S214403A5008ED00E0DFF80C00016841F470010160F9
S214403A607047000088ED00E04FF0807340F8043C5B
S214403A7040F8081C054B40F80C3C40F8202C6FF0F2
S214403A80020340F8243C4438704700BF013A4000E7
S214403A90074B19680868B0E8F04F80F30988BFF311
S214403AA06F8F4FF0000080F311887047AFF30080AF
S214403AB0DCFE00204FF4807383F31188BFF36F8FD2
S214403AC0BFF34F8F0A4A136801331360012B0DD1A1
S214403AD0084B1B6813F0FF0F08D04FF4807383F336
S214403AE01188BFF36F8FBFF34F8FFEE7704700BF5D
S214403AF01C00002004ED00E0094B1B6843B94FF45E
S214403B00807383F31188BFF36F8FBFF34F8FFEE749
S214403B10013B034A13600BB983F31188704700BF1B
S214403B201C00002000000000000000000000000014
S214403B30EFF30980BFF36F8F154B1A681EF0100F16
S214403B4008BF20ED108A20E9F04F10604DF8043D84
S214403B504FF4807080F31188BFF34F8FBFF36F8FA1
S214403B6001F072F94FF0000080F3118808BC196824
S214403B700868B0E8F04F1EF0100F08BFB0EC108A8F
S214403B8080F30988BFF36F8F704700BFAFF30080A4
S214403B90DCFE002008B54FF4807383F31188BFF332
S214403BA06F8FBFF34F8F054B984718B14FF0805239
S214403BB0034B1A60002383F3118808BD694B40000D
S214403BC004ED00E070B5394B1C68844228BF0446BB
S214403BD037490A6822F001020A60364A1268661EB1
S214403BE05D6805FB06259B689D4288BFED1A72B648
S214403BF0314B984770B92F4B1B68304A13602C499D
S214403C000B6843F001030B60284B5B68013B136075
S214403C1062B670BD294B1D60002204331A60244AE8
S214403C20136843F00103136024B1BFF34F8F30BFD6
S214403C30BFF36F8F1E4A136823F00101116062B60E
S214403C4013F4803F0FD019494A681A4B1B68134437
S214403C50013B5D1B8B689D4201D3AA4200D2551E94
S214403C60164B1D600DE0114B5B68124A126804FB50
S214403C7003F4A41AB4FBF3F606FB03331C1B0F4BEA
S214403C801C6000220B4B1A600D4B9847084A13687D
S214403C9043F00103136030460A4B9847034B5B687A
S214403CA0013B064A1360084B984770BD94040020B9
S214403CB010E000E018E000E0D550400014E000E0DE
S214403CC0B53A4000354B4000F93A4000084B45F6BF
S214403CD0C0525A6040F2BB221A602D229A6045F6C6
S214403CE0BF52044B1A600722043B1A60704700BF5D
S214403CF09404002014E000E0334B1A68334B9A4299
S214403D0008D14FF4807383F31188BFF36F8FBFF3EE
S214403D104F8FFEE72C4B1A682D4B9A4208D14FF432
S214403D20807383F31188BFF36F8FBFF34F8FFEE727
S214403D3000B583B0274B1A78D2B20192FF221A7090
S214403D401B78DBB28DF803309DF80330224B0022FF
S214403D501A7307221A619DF8033013F0800F10D0B3
S214403D60062200E00A469DF803305B00DBB28DF881
S214403D7003309DF80330511E13F0800FF2D1164BDE
S214403D801A61154A13691B0203F4E0631361019B31
S214403D90DBB2104A1370114B1A6842F0E0721A6098
S214403DA01A6842F040421A600D4B984700220D4B6D
S214403DB01A600D4B98470D4A136843F04043136012
S214403DC00B4B98470B4B984700ED00E071C20F41F4
S214403DD070C20F4100E400E09404002020ED00E0B3
S214403DE0CD3C40001C000020553A400034EF00E037
S214403DF0353A4000013A4000EFF305830F2B0FD9C8
S214403E00104A9B5CDBB2104A127B9A4208D94FF4A8
S214403E10807383F31188BFF36F8FBFF34F8FFEE736
S214403E200A4B1B6803F4E063074A1269934208D9B9
S214403E304FF4807383F31188BFF36F8FBFF34F8FB8
S214403E40FEE77047F0E300E0940400200CED00E04D
S214403E5038B5044610F0070F1CBF20F0070408349E
S214403E60114B9847114B1B682BB9104A02F10C03B3
S214403E7023F0070313600E4BD3F8743C1C444FF6F4
S214403E80F712944208D8A34208D2084A15681D443F
S214403E90074BC3F8744C02E0002500E00025054BB4
S214403EA09847284638BD00BF154B4000A804002060
S214403EB038F20020854C400040B14FF4807383F3C5
S214403EC01188BFF36F8FBFF34F8FFEE7704700BF79
S214403ED070B504461646856B026C3AB9036843BB18
S214403EE04068194B98470023636029E06EB98068A4
S214403EF0164B9847A268236C1344A36062689342AB
S214403F0019D32368A36000201AE0C0680F4B984777
S214403F10236C5B42E2681A44E26021688A4202D21D
S214403F2062681344E360022E07D145B1013D00208C
S214403F3006E0002004E0002002E0002000E0002030
S214403F400135A56370BD00BFD1514000BF5640004B
S214403F5070B582B00190846C44B94FF4807383F39B
S214403F601188BFF36F8FBFF34F8FFEE7A26BE36BF3
S214403F709A4208D34FF4807383F31188BFF36F8F50
S214403F80BFF34F8FFEE7A26B93421AD90A4694F8C6
S214403F9045506DB201A920460C4B98470646B5F1F0
S214403FA0FF3F09D1636A6BB104F12400084B984780
S214403FB0002818BF012605E06B1C5BB284F845302C
S214403FC000E00026304602B070BD00BFD13E400043
S214403FD07D4F4000026C72B110B50346C46814446D
S214403FE0C4604068844224BF1868D8600846D968D0
S214403FF0014B984710BD7047BF5640002DE9F04131
S2144040000546224B984795F8454064B2002C16DD8D
S2144040101F4EDFF888801F4FAB6C2BB1002128461F
S214404020B04740B1C04706E06B6A43B105F1240093
S214404030B84700B1C047013C64B2002CECD1FF2326
S21440404085F84530144B9847104B984795F84440B0
S21440405064B2002C12DD2B691BB90FE02B692BB91B
S2144040600CE005F110070B4EDFF830803846B047BD
S21440407000B1C047013C64B2002CEFD1FF2385F865
S2144040804430054B9847BDE8F08100BFB53A400044
S214404090513F40007D4F4000F93A4000C550400037
S2144040A038B540B94FF4807383F31188BFF36F8FF0
S2144040B0BFF34F8FFEE704460D46184B98472268DD
S2144040C0216CE36B03FB01F3D01860600020A06313
S2144040D0A2605B1A1344E360FF2384F8443084F8FC
S2144040E045307DB92369A3B104F110000C4B9847C5
S2144040F078B14FF080520B4B1A60BFF34F8FBFF32F
S2144041006F8F06E004F11000074DA84704F1240025
S214404110A847064B9847012038BD00BFB53A400037
S2144041207D4F400004ED00E071394000F93A400010
S214404130F8B540B94FF4807383F31188BFF36F8F9F
S214404140BFF34F8FFEE7064617460D4601FB00F0CD
S21440415054300B4B9847044678B10DB9206002E0C6
S21440416000F154030360E663256401212046054BB5
S214404170984784F850700023A3642046F8BD00BFDB
S214404180513E4000A140400040B94FF4807383F355
S2144041901188BFF36F8FBFF34F8FFEE7884208D278
S2144041A04FF4807383F31188BFF36F8FBFF34F8F45
S2144041B0FEE710B50C4602220021034B9847034603
S2144041C000B18463184610BD314140002DE9F04FE0
S2144041D085B0019240B94FF4807383F31188BFF3E2
S2144041E06F8FBFF34F8FFEE7044651B9026C42B162
S2144041F04FF4807383F31188BFF36F8FBFF34F8FF5
S214404200FEE7022B0BD1E26B012A08D04FF48073F5
S21440421083F31188BFF36F8FBFF34F8FFEE71D46C2
S2144042200091524B984750B9019B53B14FF480735D
S21440423083F31188BFF36F8FBFF34F8FFEE70027DE
S21440424000E000274A4EDFF85491DFF83081B0474F
S214404250A26BE36B9A4201D3022D31D12A460099D4
S2144042602046444B9847A36C6BB129462046424BA8
S214404270984708B34FF08052404B1A60BFF34F8FB9
S214404280BFF36F8F18E0636A6BB104F124003C4BB8
S214404290984788B14FF08052384B1A60BFF34F8F23
S2144042A0BFF36F8F08E038B14FF08052334B1A603F
S2144042B0BFF34F8FBFF36F8F324B9847012051E0CB
S2144042C0019B1BB92F4B984700204BE017B902A81B
S2144042D0C84701272B4B98472B4B9847B04794F835
S2144042E044305BB2B3F1FF3F04BF002384F8443050
S2144042F094F845305BB2B3F1FF3F04BF002384F827
S2144043004530204B984701A902A8204B984718BB38
S214404310B047D4F838B0D4F83CA01A4B9847D345A9
S21440432014D1019904F11000194B98472046194BB7
S2144043309847194B9847002889D14FF08053C8F8C2
S2144043400030BFF34F8FBFF36F8F80E72046114B8F
S2144043509847114B98477AE720460E4B98470E4BA6
S2144043609847002005B0BDE8F08F00BF31514000AF
S214404370B53A4000D13E4000513F400004ED00E0D9
S2144043807D4F4000F93A4000154B40003950400000
S214404390014F4000FD3F4000854C4000115040001A
S2144043A038B5024600210120064B9847044638B1EE
S2144043B0002141600160C1600B460A46024DA84795
S2144043C0204638BD31414000CD4140002DE9F843FC
S2144043D040B94FF4807383F31188BFF36F8FBFF3F8
S2144043E04F8FFEE7044651B9006C40B14FF48073DE
S2144043F083F31188BFF36F8FBFF34F8FFEE7022B17
S2144044000BD1E06B012808D04FF4807383F31188FA
S214404410BFF36F8FBFF34F8FFEE71F469046894628
S214404420264B9847EFF311864FF4807383F3118839
S214404430BFF36F8FBFF34F8FA26BE36B9A4201D3EC
S214404440022F2CD194F845506DB23A464946204644
S2144044501B4B9847B5F1FF3F1BD1A36C5BB1394668
S2144044602046184B9847E0B1B8F1000F1BD001200A
S214404470C8F800001EE0636ABBB104F12400124B8A
S2144044809847A0B1B8F1000F13D00120C8F800003B
S21440449010E06B1C5BB284F8453001200AE0002037
S2144044A008E0012006E0012004E0012002E00120AF
S2144044B000E0012086F31188BDE8F883F93D40000E
S2144044C0D13E4000513F40007D4F400040B94FF440
S2144044D0807383F31188BFF36F8FBFF34F8FFEE770
S2144044E070B50446036C43B14FF4807383F3118870
S2144044F0BFF36F8FBFF34F8FFEE7036853B9436830
S21440450043B14FF4807383F31188BFF36F8FBFF3CB
S2144045104F8FFEE70E46214B9847EFF311854FF439
S214404520807383F31188BFF36F8FBFF34F8FA26BF7
S214404530E36B9A4223D294F845305BB20132A263D1
S214404540B3F1FF3F15D1A36C43B100212046144B75
S2144045509847B0B1BEB1012030601BE0636AA3B19A
S21440456004F124000F4B984788B196B10120306083
S21440457010E001335BB284F8453001200AE00020A9
S21440458008E0012006E0012004E0012002E00120CE
S21440459000E0012085F3118870BD00BFF93D400062
S2144045A0513F40007D4F40002DE9F04F85B00192CD
S2144045B040B94FF4807383F31188BFF36F8FBFF316
S2144045C04F8FFEE7044651B9026C42B14FF48073F8
S2144045D083F31188BFF36F8FBFF34F8FFEE7984684
S2144045E00F46594B984750B9019B5BB14FF48073C7
S2144045F083F31188BFF36F8FBFF34F8FFEE74FF003
S214404600000901E04FF00009504DDFF870B1DFF8C7
S2144046104CA1A847A66B002E32D0E5683946204606
S2144046204B4B9847B8F1000F16D1013EA66323685E
S21440463013B9484B984760602369EBB104F110000A
S214404640454B9847C0B14FF08052444B1A60BFF379
S2144046504F8FBFF36F8F0FE0E560636A63B104F17D
S21440466024003D4B984738B14FF080523B4B1A6080
S214404670BFF34F8FBFF36F8F394B984701205FE0F2
S214404680019B1BB9364B9847002059E0B9F1000F03
S21440469003D102A8D8474FF00109314B9847314B18
S2144046A09847A84794F844305BB2B3F1FF3F04BF45
S2144046B0002384F8443094F845305BB2B3F1FF3FB2
S2144046C004BF002384F84530254B984701A902A82B
S2144046D0254B984738BBA847A66B214B9847E6B969
S2144046E023682BB9A8476068204B98471C4B9847CF
S2144046F0019904F124001E4B984720461D4B9847CD
S2144047001D4B9847002884D14FF08053CAF800309C
S214404710BFF34F8FBFF36F8F7BE72046154B98470D
S214404720154B984775E72046124B9847124B9847CB
S214404730A847A66B0A4B9847002E7FF46AAF002026
S21440474005B0BDE8F08F00BF31514000B53A40009B
S214404750D53F4000695240007D4F400004ED00E0E8
S214404760F93A4000154B4000395040005151400046
S214404770014F4000FD3F4000854C40001150400036
S21440478008B540B94FF4807383F31188BFF36F8F39
S214404790BFF34F8FFEE7014B984708BDB93E400038
S2144047A070B504460D461646104B984794F844306C
S2144047B05BB2B3F1FF3F04BF002384F8443094F863
S2144047C045305BB2B3F1FF3F04BF002384F8453069
S2144047D0074B9847A36B2BB93246294604F1240071
S2144047E0044B98472046044B984770BDB53A400066
S2144047F0F93A4000394F4000FD3F40000B4B9A6A63
S214404800DB6ADB6A5BB9094B1B6B012B09D852B9D3
S214404810064AD2F89430D2F89800181A704700200A
S2144048207047002070470020704700BFB0FE002051
S214404830094BD3F89C301B682BB94FF0FF32064B20
S214404840C3F894207047044BD3F89C20D268D268B3
S2144048505268C3F894207047B0FE002070B50446F6
S2144048600E46174BD3F89850D86A0430154B9847E5
S214404870B4F1FF3F06D12EB11148C16A0431124B44
S214404880984770BD2C440E4BDB6A5C60A54207D946
S2144048900B4BD3F8A000D96A04310C4B984770BD37
S2144048A0074DD5F89C00E96A0431084B9847D5F87F
S2144048B094309C423CBF2B46C3F8944070BD00BF2A
S2144048C0B0FE0020DD39400091394000A939400053
S2144048D02DE9F04F83B083460E460193DDF834A0B1
S2144048E0950028465F4B9847002800F0B68007465C
S2144048F054205C4B9847044680B107632A46A5215E
S2144049003846594B9847043D236B1D4425F0070510
S214404910337884F83430337823B90FE03846534B35
S21440492098479AE0334604F13402F11D13F8010F1C
S21440493002F8010F187808B18B42F7D1002784F8A7
S2144049403B700C9E042E28BF0426E6626664A7646D
S21440495004F104084046DFF83491C84704F11800D3
S214404960C8472461C6F10506A6616462E76484F818
S2144049705070019A594628463D4B98472060BAF1F8
S214404980000F01D0CAF800403A4B98473A4BD3F84C
S214404990A4200132C3F8A420DB6A1BBB364BDC6282
S2144049A0D3F8A430012B29D1334E06F13005943686
S2144049B0324F2846B8471435AE42FAD12E4D05F14F
S2144049C0A80948462D4EB04705F1BC073846B047C3
S2144049D005F11400B0472846B047C5F89C90C5F886
S2144049E0A0700BE0244BD3F8D0303BB9224BDB6AA7
S2144049F0DA6AE36A9A429CBF1F4BDC621E4AD2F8D0
S214404A00D4300133C2F8D430E363E36A926A934207
S214404A1084BF194A9362184D05F1300003EB8303B7
S214404A20414600EB8300164B9847164B9847D5F8FF
S214404A30D03073B1EB6ADA6AE36A9A420BD24FF02F
S214404A408052114B1A60BFF34F8FBFF36F8F012018
S214404A5005E0012003E0012001E04FF0FF3003B005
S214404A60BDE8F08F513E40000B574000B93E400035
S214404A70693A4000B53A4000B0FE00207139400027
S214404A8091394000F93A400004ED00E08939400091
S214404A9010B582B0184B019300230093402217496B
S214404AA01748184CA047012819D1174B984701289A
S214404AB015D14FF4807383F31188BFF36F8FBFF324
S214404AC04F8F124B4FF0FF32C3F894200122C3F8A9
S214404AD0D0200022C3F898200D4B984709E040B9F3
S214404AE04FF4807383F31188BFF36F8FBFF34F8FFC
S214404AF0FEE702B010BD00BF8CFF002048794000A2
S214404B00DD4D4000D148400019534000B0FE002023
S214404B10F93C4000034AD2F8D8300133C2F8D830C6
S214404B20704700BFB0FE0020014BD3F89800704796
S214404B30B0FE00200B4BD3F89820D3F894300244B4
S214404B409A4208D94FF4807383F31188BFF36F8F6E
S214404B50BFF34F8FFEE7034AD2F898300344C2F8BB
S214404B6098307047B0FE00202DE9F047414BD3F80F
S214404B70D830002B6DD13F4BD3F898600136C3F840
S214404B809860E6B9D3F89C301B6843B14FF4807305
S214404B9083F31188BFF36F8FBFF34F8FFEE7354B1C
S214404BA0D3F89C20D3F8A010C3F89C10C3F8A020DC
S214404BB0D3F8E0200132C3F8E0202F4B98472D4B26
S214404BC0D3F894309E4201D2002436E00024294D8A
S214404BD0DFF8AC8005F1300AD5F89C301B682BB95D
S214404BE04FF0FF32234BC3F8942026E0D5F89C3094
S214404BF0DB68DF687B689E4203D21E4AC2F8943068
S214404C001BE007F104094846C047BB6A13B107F1E9
S214404C101800C047F86AAB6A984288BFA86200EBA3
S214404C20800049460AEB8000144B9847EB6AFA6AC4
S214404C30DB6A9A4228BF0124CEE70E4BDA6AD26A74
S214404C4002EB820203EB82031B6B022B28BF01247C
S214404C5006E0084AD2F8E4300133C2F8E4300024D3
S214404C60044BD3F8E830002B0CBF20460120BDE8AB
S214404C70F08700BFB0FE0020314840009139400028
S214404C80DD394000374BD3F8D83043B94FF4807302
S214404C9083F31188BFF36F8FBFF34F8FFEE72DE985
S214404CA0F041314B98472F4BD3F8D820013AC3F800
S214404CB0D820D3F8D830002B4CD12A4BD3F8A43088
S214404CC0F3B9002449E0236ADD6805F11800B047CF
S214404CD02F1D3846B047E86AA36A984288BFA0624C
S214404CE000EB8000394608EB8000204B9847E36A8B
S214404CF0EA6ADB6A9A4208D30123C4F8E83004E043
S214404D000025184C1A4E04F130086369002BDAD19E
S214404D100DB1184B9847134BD3F8E44064B1164F87
S214404D201E460125B84708B1C6F8E850013CF9D1FF
S214404D3000220C4BC3F8E4200A4BD3F8E8305BB1B2
S214404D404FF080520D4B1A60BFF34F8FBFF36F8FFB
S214404D50012402E0002400E00024094B9847204646
S214404D60BDE8F081B0FE0020B53A400091394000E1
S214404D70DD39400031484000694B400004ED00E01A
S214404D80F93A400010B5B0B104460F4BD3F8D830CE
S214404D9043B14FF4807383F31188BFF36F8FBFF333
S214404DA04F8FFEE7094B984700212046084B98470F
S214404DB0084B984738B94FF08052074B1A60BFF3FC
S214404DC04F8FBFF36F8F10BDB0FE0020154B4000D5
S214404DD05D484000854C400004ED00E0F8B5144CBA
S214404DE0144E154D154F236B012B06D94FF08053AB
S214404DF03360BFF34F8FBFF36F8FA8470128F2D9B8
S214404E00B847D4F89420D4F898309A4208D24FF451
S214404E10807383F31188BFF36F8FBFF34F8FFEE726
S214404E20A847012801D9064B9847064B9847DAE72A
S214404E30B0FE002004ED00E0FD474000154B40006A
S214404E40C53B4000854C40002A4BD3F8D83023B1B0
S214404E500122284BC3F8E820704710B5254B0022A6
S214404E60C3F8E820DA6ADB6A12681B6B9A4205D8F8
S214404E70204BD86AD96A34311F4B98471D4A936AEB
S214404E8003EB830102EB8102126BB2B95BB901E01E
S214404E90143A6BB94FF4807383F31188BFF36F8F66
S214404EA0BFF34F8FFEE703EB8301144A02EB810208
S214404EB0013B52F8141C0029EAD00E4A9900C81843
S214404EC002EB8000446B6468446302463832944286
S214404ED006D1606803EB8301064A02EB8102506309
S214404EE0044A03EB830102EB8101496BC968D16236
S214404EF0936210BDB0FE0020DD294000E0FE002099
S214404F0040B94FF4807383F31188BFF36F8FBFF3BC
S214404F104F8FFEE710B50C46044BD96A1831044B48
S214404F20984701212046034B984710BDB0FE00200D
S214404F30A93940005D48400038B540B94FF4807309
S214404F4083F31188BFF36F8FBFF34F8FFEE714468E
S214404F500D46074BD96A1831064B9847002C214618
S214404F600CBF28464FF0FF30034B984738BD00BF74
S214404F70B0FE0020913940005D48400038B5C36817
S214404F80DC6844B94FF4807383F31188BFF36F8FA6
S214404F90BFF34F8FFEE704F118052846164B984797
S214404FA0164BD3F8D8309BB9251D2846124B984748
S214404FB0E06A124B9B6A984284BF104B986200EBA3
S214404FC0800029460E4B03EB80000E4B984703E0CB
S214404FD029460D480B4B9847084BDB6AE26ADB6A6A
S214404FE09A4283BF0124054BC3F8E8400024074B90
S214404FF09847204638BD00BFDD394000B0FE00204F
S214405000E0FE002091394000C4FE002031484000B8
S21440501040B94FF4807383F31188BFF36F8FBFF3AB
S2144050204F8FFEE7034AD2F8E0100160D2F898208E
S21440503042607047B0FE002038B540B94FF48073E8
S21440504083F31188BFF36F8FBFF34F8FFEE704469D
S21440505041B94FF4807383F31188BFF36F8FBFF36A
S2144050604F8FFEE70D46134B9847134BD3F89810D7
S2144050702B68B3F1FF3F14D00F4AD2F8E0202068E7
S214405080904202D0626891420DD26268881A83428A
S2144050900BD9521A13442B602046084B98470024DD
S2144050A004E0002402E0012400E00124044B984779
S2144050B0204638BDB53A4000B0FE002011504000B2
S2144050C0F93A40000122024BC3F8E820704700BF7F
S2144050D0B0FE00200A4B5B696BB9094BD3F8E83049
S2144050E05BB9074BD3F8A40001381B68834214BF52
S2144050F0012002207047002070470020704700BF04
S214405100B0FE0020034608B9084BDB6A196B0B78E3
S214405110A52B06D14B1C581A13F8012BA52AFAD0FA
S21440512000E00020C0F38F00704700BFB0FE0020B4
S214405130064BD3F8D0303BB1044BD3F8D830002BD5
S2144051400CBF02200020704701207047B0FE0020B0
S214405150002834D038B50346C26A1949C96AC96AB4
S2144051608A422BD28169002905DB1549C96AC96A7A
S214405170C1F10501816102EB8202124901EB820214
S2144051805969914216D11D461C1D20460E4B984724
S2144051900B4BDA6AD06AE8629B6A984284BF084B37
S2144051A0986200EB80002146064B03EB8000074BDD
S2144051B0984738BD024AD26AD26ADA6238BD70472A
S2144051C0B0FE0020E0FE0020DD394000913940006E
S2144051D000283AD038B503461F4AD26A904208D0D3
S2144051E04FF4807383F31188BFF36F8FBFF34F8FF5
S2144051F0FEE7826C42B94FF4807383F31188BFF3A5
S2144052006F8FBFF34F8FFEE7013A8264C06A596CD6
S21440521088421CD0EAB91C461D1D28460F4B9847AD
S214405220606CE062C0F10503A3610B4B9B6A984239
S21440523084BF094B986200EB80002946084B03EB7D
S2144052408000084B9847012038BD0020704700205A
S21440525038BD002038BD00BFB0FE0020DD3940001C
S214405260E0FE002091394000054BDB6A23B1044B39
S214405270DA6A936C01339364014BD86A704700BF77
S214405280B0FE002008B54160006191420AD8D21AAB
S21440529083699A4211D2011D0A4B18680A4B9847F7
S2144052A0002008BD9A4201D2994208D2011D054B02
S2144052B05868054B9847002008BD012008BD0120CE
S2144052C008BD00BF9CFF0020A9394000F8B50D4B33
S2144052D098470D4B9B688BB90B4C04F10C06304637
S2144052E00A4FB84704F120052846B847666025604F
S2144052F000220C210220064B9847A060054B984799
S214405300F8BD00BFB53A40009CFF00207139400010
S21440531031414000F93A400010B582B00D4B9847F5
S2144053200D4B9B6853B10D4B019302230093002312
S21440533040220B490B480C4CA04740B94FF48073B1
S21440534083F31188BFF36F8FBFF34F8FFEE702B032
S21440535010BD00BFCD5240009CFF0020D0FF002073
S2144053606079400089544000D148400040B94FF42D
S214405370807383F31188BFF36F8FBFF34F8FFEE7C1
S21440538030B585B0154604460F4A9068C0B11A46F7
S21440539001910295039405290DDC0C4B9847022891
S2144053A04FF000030CBF089A1A4601A906488068C9
S2144053B0074CA04705E0002301A9064CA04700E0A3
S2144053C0002005B030BD00BF9CFF0020315140009A
S2144053D0CD414000CD4340002DE9F04782B08046A5
S2144053E0244B98470746244B9B6B984238D229E07B
S2144053F0DB68D3F800A0DC6804F104094846B047EF
S214405400636A20469847E369012B1DD1A36953443C
S2144054109A4506D26360246149466868174B9847A8
S21440542012E0002100910B4652462046144CA047FD
S21440543050B94FF4807383F31188BFF36F8FBFF377
S2144054404F8FFEE70C4D0F4E6B681A68002ACFD17F
S214405450094A1168516013600123C8F8003002E021
S2144054600023C8F80030044B9F63384602B0BDE8BE
S214405470F08700BF294B40009CFF0020A939400020
S2144054806D534000DD3940002DE9F04786B0604C52
S214405490DFF8A4A15F4D63681A68002A00F0A88070
S2144054A0DB681E685C4B984703A85C4B9847804671
S2144054B0039B002B42D186422DD8594B98476368B0
S2144054C0DB68D3F80C9009F10400564B9847D9F89E
S2144054D01C30012B1AD1D9F81810334642463144B5
S2144054E04846DFF84C81C04780B1002100910B460A
S2144054F0324648464C4EB04740B94FF4807383F32B
S2144055001188BFF36F8FBFF34F8FFEE7D9F8243073
S2144055104846984763E00022C8EB0601A068434B24
S21440552098473F4B9847002859D14FF08053CAF8C8
S2144055300030BFF34F8FBFF36F8F50E0384B984724
S2144055404DE0039B002B4BDB059E73690BB1301D72
S214405550B84702A8314B9847039B092B40D8DFE851
S21440556003F00505053F283B05053F2804990B46F3
S2144055700246B069014430462D4FB84700282ED029
S214405580736A30469847F369012B28D1B2690021E7
S21440559000910B46049802443046234EB047F0B97B
S2144055A04FF4807383F31188BFF36F8FBFF34F8F31
S2144055B0FEE70499B16141B94FF4807383F31188D3
S2144055C0BFF36F8FBFF34F8FFEE70346024601449B
S2144055D03046174EB04702E03046164B9847114FBC
S2144055E000231A4603A9A068A8470028A9D152E775
S2144055F0094B984703A8094B98478046039B002BC6
S2144056009CD123681A68B2FA82F25209002683E7D0
S2144056109CFF0020A9454000154B4000D953400050
S214405620854C4000DD3940006D534000A1474000A6
S21440563085524000B93E400004ED00E00A220021B9
S21440564000F058BC70B50E4B0E4CE41AA410002562
S2144056501E46A54204D056F8253098470135F8E74F
S21440566002F0E2FA084C094BE41AA41000251E4644
S214405670A54204D056F8253098470135F8E770BD66
S214405680347C4000347C4000387C4000347C400011
S214405690024B0146186800F08FBA00BF8000002019
S2144056A010B501390244904207D010F8013B11F87A
S2144056B0014FA342F7D0181B10BD002010BD10B5F7
S2144056C0431E0A44914204D011F8014B03F8014F9F
S2144056D0F8E710BD884210B501EB020301D8421E20
S2144056E00BE09842FBD28118D21AD34204D013F86A
S2144056F0014D01F8014DF8E710BD994204D011F86C
S214405700014B02F8014FF8E710BD024403469342AE
S21440571002D003F8011BFAE770470000F7B50168AE
S2144057203B29044611D93C22684600F01DFE019AEA
S21440573063680099002A0B446360BBBF3C3203F1A8
S214405740FF3322602260B8BF636061683B2911D98D
S2144057503C22684600F008FE019AA168009B002A99
S2144057600B44A360BBBF3C3203F1FF336260626010
S214405770B8BFA360A168172911D91822684600F05F
S214405780F3FD019AE168009B002A0B44E360BBBF2F
S214405790183203F1FF33A260A260B8BFE36021690C
S2144057A00B2911D90C22684600F0DEFD019A61698A
S2144057B0009B002A0B446361BBBF0C3203F1FF33EE
S2144057C022612261B8BF63616369990712D164217F
S2144057D093FBF1F201FB123272B903F26C734FF491
S2144057E0C87193FBF1F201FB1233002B14BF1C234C
S2144057F01D2302E01C2300E01D23E268002A06DD8C
S214405800334F4FF0000E64254FF4C87639E0304FE2
S2144058100B2664204FF4C875D4F80CE0BEF1000F98
S21440582053DC216901392161013118D16369266150
S214405830591E8A0761610FD191FBF0F200FB1211ED
S21440584061B903F26B7393FBF5F205FB1233002B41
S21440585014BF1C231D2302E01C2300E01D232269E5
S214405860012A14BF57F822201A467244E260D3E752
S2144058708B422ADA18460132091A0C2AE160226164
S21440588008D02269E168012AF2D057F82200814206
S214405890F1DC1AE06369C4F810E05A1C91076261B3
S2144058A00FD192FBF5F105FB112262B903F26D733D
S2144058B093FBF6F206FB1233002B14BF1C231D236A
S2144058C0DFE71C23DDE71D23DBE703B0F0BD00BFA9
S2144058D09C7940002DE9F047054600F09DFD814645
S2144058E02846FFF71BFF95E80C003C2101FB0323ED
S2144058F0AA68EC684FF4616808FB02312B69AB4A32
S21440590052F82320013C012B14446B6911DD9E079D
S2144059100FD1642093FBF0F200FB123242B903F23F
S2144059206C764FF4C87296FBF2F002FB106202B936
S214405930013403F51C52103244F620608242EC617A
S2144059401F4600F22E81462B22DD462240F26D1C79
S21440595064264FF4C87E900710D192FBF6F006FB03
S214405960102070B902F26C7898FBFEF00EFB1080A7
S214405970002814BF60464FF4B77004E040F26D1044
S21440598001E04FF4B770013293420444E3D144E05F
S21440599043D0452240F26D1E64264FF4C8779A42A3
S2144059A01ADD900710D192FBF6F006FB102070B976
S2144059B002F26C7C9CFBF7F007FB10C0002814BF7B
S2144059C070464FF4B77004E040F26D1001E04FF4BB
S2144059D0B770241A013AE2E7452BA8BF45239E0735
S2144059E01F4614D1642293FBF2F302FB13738BB968
S2144059F007F26C704FF4C87390FBF3F203FB12038C
S214405A00002B40F26D1308BF4FF4B77304E040F22A
S214405A106D1301E04FF4B773E41A654800FB0418B1
S214405A2000F01AFB00F01AFB624B1E68002E00F0D6
S214405A30A4802B6A6869012BA8BF01239A46D9F82F
S214405A40043000F26C7098420DD1D9F83820D9F85D
S214405A502030D9F83C00D9F81C10D61AB045A1EB36
S214405A60000105DA07E000F04FFA0028EDD176E0B5
S214405A70121A904573DBD9F8002012B1884577DBBF
S214405A8001E0884507DAB045ACBF00260126BAF1EA
S214405A90000F04DA64E0BAF1000F63DB01268AEAFD
S214405AA0060ABAF1010F5BD11B1A06B95B422A6897
S214405AB0D5F80CA01A442A6028469844FFF72EFED4
S214405AC0EB68B3EB0A034BD0012B03DC981CD8BF22
S214405AD0012301E04FF0FF33EA691C449B181DD5B3
S214405AE07B1E990714D1642193FBF1F201FB12331C
S214405AF08BB907F26B774FF4C87297FBF2F302FB51
S214405B001377002F40F26D1318BF4FF4B67324E09E
S214405B104FF4B67321E040F26D131EE0BA0714D17D
S214405B20642197FBF1F201FB12728AB907F26C7797
S214405B304FF4C87197FBF1F201FB1277002F40F249
S214405B406D1208BF4FF4B77204E040F26D1201E0E8
S214405B504FF4B7729A42D8BF9B1AEB6100E05646A4
S214405B60012E0AD1D9F83C00012608EB000708E0D0
S214405B70BAF1000F4FF0000691DAD9F8200008EB92
S214405B80000700F06AFA0434072394FBF3F3C3EBF0
S214405B90C303E41A48BF07342E62AC613846BDE8FA
S214405BA0F0874FF0FF30BDE8F08700BF6C794000CB
S214405BB080510100FCFF002030B500293ED051F84E
S214405BC0042C0B1F1E49002AB8BF9B180A680C46B7
S214405BD012B95A600B6030BD9A420ED919685818EF
S214405BE0824204BF106852685A6004BF09181960A0
S214405BF0236030BD994203D80A4651680029F9D13E
S214405C00146815199D420AD11B682344D018814256
S214405C10136013D10868034413604B680DE002D943
S214405C200C23036030BD18681C18A14204BF0C68E2
S214405C304968596004BF00191860536030BD00BF02
S214405C40DCFF002070B5CD1C25F0030508350C2D73
S214405C5038BF0C25002D064603DA0C23336000209F
S214405C6070BDA942F9D81F4B1C681A462146A1B1FF
S214405C700B685B1B0ED40B2B03D90B60CC18CD5096
S214405C801EE08C420DBF63684B686360136018BFAC
S214405C900C4615E00C464968E9E7134C23681BB9E7
S214405CA0304600F023F820602946304600F01EF8C3
S214405CB0431CD2D0C41C24F00304A0420AD1256061
S214405CC004F10B00231D20F00700C31A09D05A42E6
S214405CD0E25070BD211A304600F008F80130EED18F
S214405CE0BBE770BDDCFF0020D8FF002038B5064C6F
S214405CF00023054608462360FBF79EF8431C02D166
S214405D00236803B12B6038BDE01301200EB400B504
S214405D109CB04FF402711DABADF814100290069083
S214405D206FF000410A48049107914FF6FF7153F80F
S214405D30042BADF816100068019302A900F0CAFBC8
S214405D40029B00221A701CB05DF804EB03B070474B
S214405D5080000020034611F8012B03F8012B002A8F
S214405D60F9D17047034613F8012B002AFBD1181AC5
S214405D700138704730B503461C785D1C44B12B464D
S214405D80FAE711F8014B03F8014B24B102B91A7037
S214405D9012F1FF32F5D230BD30B582B1451E013921
S214405DA015F8013F11F8014FA34206D1EC431444C5
S214405DB0E04201D0002BF3D11C46181B30BD1046E4
S214405DC030BD10B5034642B111F8014B03F8014B04
S214405DD0013A002CF7D11A4400E010BD934202D09D
S214405DE003F8014BFAE710BD2DE9F04780464048DE
S214405DF0D0F800900F463D4615F8014B09EB0400DD
S214405E00407800F0080000F0FF0608B12F46F2E7A1
S214405E102D2C03D1BD1C7C78012603E02B2C04BF1F
S214405E207C78BD1C13B1102B0AD15BE0302C57D1C7
S214405E30287800F0DF0058284DD16C7810230235C2
S214405E40002E14BF4FF0004C6FF0004C0027BCFBF8
S214405E50F3FA384603FB1ACC09EB040E9EF801E031
S214405E601EF0040F01D0303C0BE01EF0030E1BD09A
S214405E70BEF1010F0CBF4FF0370E4FF0570ECEEB72
S214405E800404A34210DDB7F1FF3F0AD0504506D8C0
S214405E9001D1644503DC03FB0040012701E04FF0DD
S214405EA0FF3715F8014BD7E77B1C0CD1002E4FF07F
S214405EB0220314BF4FF000406FF00040C8F8003097
S214405EC02AB9BDE8F08706B1404272B107B1691EF3
S214405ED01160BDE8F0873024002BB1D10823AFE72E
S214405EE00A23ADE7302CA3D0AAE7BDE8F08700BF71
S214405EF08C00002013460A46014602480068FFF719
S214405F0073BF00BF800000202DE9F74F044600F025
S214405F1083FA40F2B1739C4240F396806FF4F66386
S214405F20E318A4F2B2729B1040F26D1505FB0235E1
S214405F30A4F26D726FF0630392FBF3F36FF4C862E2
S214405F402B44A5184FF4C87295FBF2F51D44642304
S214405F5094FBF2F794FBF3F602FB174703FB164657
S214405F6000F13803B7FA87FE019304F00303446058
S214405F704FEA5E1E014600934FF0070C0B7A4A2B01
S214405F800ED14B69009AEC1802B906B927B93B2BDB
S214405F90D4BF0023012300E000232344013B3FE01D
S214405FA0442B02D14B692B443AE0009B2BB9002E80
S214405FB00CBFF0464FF0010800E0F046244BCC689A
S214405FC0302202FB0838A8F1040AA9460123A3425E
S214405FD004DA5AF804BF0133D944F8E709F1040358
S214405FE093FBFCFBCBEBCB0A012CCAEB030A4B69B9
S214405FF0B8BF012404F18044B3EB0A0A0B6904F1EC
S214406000FF3403F1FF3348BF0AF1070AC3EBC3036B
S21440601058F824405344A34201DB073BFBE74B447C
S2144060208C690C4A02FB03430C6A234441F81C3F2C
S214406030019B9942A2D1C369826B9342ACBF0023B5
S21440604001230360012000E0002003B0BDE8F08F8C
S2144060506C7B40008051010070477047014B1868C8
S21440606000F002B8800000202DE9F04F8DB00746C2
S21440607000F0D2F9B049B14E0446384600F0C4F9B3
S214406080054660B9AE4BAF4A1860AF4B1860AF4B91
S21440609030681A605A60FFF7FBFA356048E13168AD
S2144060A079B93068FFF7F4FA2846FFF75BFE411CE3
S2144060B03846FFF7C7FD306048B12946FFF74AFE2D
S2144060C005E000F0C3FC002800F03281E9E72B78B9
S2144060D09F4AA0493A2B08BF01350AAE33462846A8
S2144060E000F088FC002840F323810A9BEF18EB5C05
S2144060F02D2B03D101374FF0FF3503E02B2B08BF84
S214406100013701250DF1200A0DF11E0B4FF0000856
S2144061100396CDF808A00196CDF800B0334607AAFE
S2144061208D49ADF81E803846ADF8208000F062FC00
S214406130404540F3FD80BDF81E20BDF82030DFF816
S21440614024923C2101FB0233BDF81C204FF46161D0
S21440615001FB02335D4325627C4D7D4B2B600A9BE1
S2144061607C491F444A463346384600F043FC404587
S21440617008DC2B686B60724B226A1A60724BC3F85D
S2144061800080D5E00A9BC5F80490FD18FB5C2D2BDB
S21440619003D101354FF0FF3703E02B2B08BF013505
S2144061A001270023ADF81C30ADF81E30ADF8203086
S2144061B00A930396CDF808A00196CDF800B0334672
S2144061C007AA6549284600F015FC002804DC236A27
S2144061D0A3F56163E3630EE0BDF81E20BDF82030F2
S2144061E03C2101FB0233BDF81C204FF4616101FBEA
S2144061F002335F43E7630A9B27461D444FF000097E
S2144062002B782C2B08BF013595F80080B8F14D0F40
S21440621026D10DF12603029309AB0093039601960F
S21440622033460DF122024D49284600F0E3FB032891
S2144062307ED1BDF822104B1E0B2B79D8BDF82420FA
S214406240531E042B74D8BDF82630062B70D887F81A
S2144062500880F9603A617B610A9B05EB03082AE0F7
S214406260B8F14A0F06BF0135434644230A220BA91C
S2144062702846059300F072FCDDF82C80ADF8260029
S2144062804545059B14D14D23B9F1000F07D1237224
S2144062900323E36002232361C4F814900BE084F8E0
S2144062A024300B23A3620123E3620023236302E02E
S2144062B080B23B7278610223ADF81C300023ADF803
S2144062C01E30ADF820300A9398F800302F2B0BD1B3
S2144062D00396CDF808A00196CDF800B0334607AA3D
S2144062E01F49404600F086FBBDF81E20BDF8203012
S2144062F03C2101FB0233BDF81C204FF4616101FBD9
S2144063000233BB610A9D09F10109B9F1020F454408
S21440631007F11C077FF474AF6068FFF7F5FD084B84
S214406320226A1A60E36B9B1A074A18BF0123136060
S2144063300DB0BDE8F08F00BFCC794000F8FF0020DC
S21440634000000120CF794000FCFF002084000020A0
S214406350EBFF0020D3794000F6794000E279400018
S214406360F5794000E0FF0020002910B591FBF2F4DB
S21440637002FB141304DB002B07DA01349B1A04E0FB
S214406380002BC4BF04F1FF349B180460436010BD6B
S2144063902DE9F84F07468B46904600F0E9FB194B2F
S2144063A01D689A463DB15C46234613F8012B42B120
S2144063B03D2A1C46F8D1384600F0DBFB0020BDE8FD
S2144063C0F88FCBEB0404A94659F8040B0028F2D00A
S2144063D022465946FFF7E0FC88B959F8043C1E1996
S2144063E01B5D3D2B0BD1DAF80030ED1AAD10384668
S2144063F0C8F8005000F0BDFB701CBDE8F88F4D4655
S214406400E1E700BFD000002007B501AAFFF7C0FFB4
S21440641003B05DF804FB0000004870479000002081
S2144064202DE9F0478E689E4282460C469146984635
S2144064303ED88A8912F4906F3AD0256809696F1A57
S2144064406569022305EB450595FBF3F57B1C434444
S2144064509D4238BF1D4653050FD52946FFF7F2FB30
S214406460064698B13A462169FFF729F9A38923F4ED
S214406470906343F08003A38113E02A4600F0D0FBEC
S214406480064670B921695046FFF796FB0C23CAF8BA
S2144064900030A38943F04003A3814FF0FF30BDE8AE
S2144064A0F087266165613E44ED1B2660A560464642
S2144064B0464528BF4646324649462068FFF70AF911
S2144064C0A3689B1BA36023681E4426600020BDE88B
S2144064D0F08700002DE9F04F9DB0804603938B89EE
S2144064E01C060D4616460DD50B695BB94021FFF7D5
S2144064F0A9FB2860286118B90C23C8F80030CDE005
S21440650040236B610023099320238DF82930DFF860
S2144065109CB130238DF82A3037463C4614F8013B70
S2144065201BB9B7EB060910D003E0252BF9D0274658
S214406530F3E74B46324629464046FFF771FF0130A7
S21440654000F0A780099B4B4409933B78002B00F052
S214406550A08000234FF0FF320493079305920693E2
S2144065608DF853301A930126052221784E4800F0C4
S21440657007FB671C049B38B14B4A801A06FA00F0AA
S214406580184304903C46EFE7D90644BF20228DF8D6
S21440659053201A0744BF2B228DF8532022782A2AEC
S2144065A003D0079A00210A200BE0039A111D1268B7
S2144065B00391002A10DA524243F0020007920490F8
S2144065C00BE0274601343B78303B092B03D800FBD1
S2144065D002320121F5E701B107923B782E2B1ED1FE
S2144065E07B782A2B0AD1039B1A1D1B680392002B2B
S2144065F0B8BF4FF0FF330237059310E000230593F2
S214406600781C19460A24074601303A78303A092A57
S21440661003D804FB01210123F5E703B105910322CA
S2144066203978224800F0ACFA40B14023CBEB00006A
S21440663003FA00F0049B18430490013739781C484D
S2144066408DF8281006227E1C00F09AFA88B1194B65
S21440665033B9039B073323F007030833039314E04F
S21440666003AB00932A46144B04A94046AFF3008080
S21440667007E003AB00932A460F4B04A9404600F0C0
S21440668093F8B0F1FF3F824603D0099B53440993E9
S21440669042E7AB895B0601D4099801E04FF0FF3032
S2144066A01DB0BDE8F08F00BFCC7B4000D27B4000E1
S2144066B0D67B400000000000216440002DE9F047F2
S2144066C091461F460A698B68DDF820809342B8BF22
S2144066D01346C9F8003091F8432006460C4612B1DE
S2144066E00133C9F800302368990642BFD9F8003014
S2144066F00233C9F80030256815F0060510D104F1BC
S214406700190A07E00123524639463046C047013051
S2144067101AD00135E368D9F800209B1A9D42F1DB78
S21440672094F843302268003318BF012392060FD5F1
S214406730E1185A1C302081F84300224494F8451052
S21440674082F84310023303E04FF0FF30BDE8F08795
S21440675004F1430239463046C0470130F4D022683F
S214406760D9F80050E36802F00602042A08BF5D1B11
S2144067702269A3680CBF25EAE57500259342C4BF8D
S2144067809B1AED184FF000091A344D4509D00123E5
S214406790224639463046C0470130D5D009F1010976
S2144067A0F3E70020BDE8F0872DE9F04317460A7E60
S2144067B085B06E2A984606460C460C9B01F1430E61
S2144067C000F0AE8011D8632A22D009D8002A00F003
S2144067D0BB80582A40F0CA8081F84520834955E05E
S2144067E0642A1ED0692A1CD0C0E0732A00F0B0800C
S2144067F009D86F2A2ED0702A40F0B8800A6842F036
S21440680020020A603EE0752A24D0782A3AD0ADE0CD
S2144068101A6801F14205111D1960136884F8423068
S214406820A8E021681A6811F0800F02D0111D196087
S21440683008E011F0400F02F10401196002D0B2F9ED
S214406840003000E01368002B3CDA2D225B4284F8CF
S214406850432037E021681A6811F0800F02D0111DDE
S214406860196007E011F0400F02F10401196001D0F1
S214406870138800E01368227E5C496F2A14BF0A2200
S21440688008221BE078225A4984F845202268186876
S21440689012F0800F00F104051D6003D1550601D5A6
S2144068A0038800E00368D00744BF42F0200222601D
S2144068B01BB9226822F0200222601022002084F8B1
S2144068C0430001E049490A226568A560002D08DBBF
S2144068D0206820F0040020602BB9002D7DD175463D
S2144068E00CE0002B79D07546B3FBF2F002FB103378
S2144068F0CB5C05F8013D03460028F5D1082A0BD1AC
S2144069002368DA0708D5236962689A42DEBF3023D7
S21440691005F8013C05F1FF35C5EB0E0323612EE07B
S21440692008681A68496910F0800F03D0101D186077
S214406930136808E010F0400F02F104001860136876
S21440694001D0198000E0196000232361754616E0E7
S2144069501A68111D1960156862680021284600F003
S2144069600FF908B1401B6060636804E004F142051B
S21440697084F8422001232361002384F84330CDF875
S21440698000803B4603AA21463046FFF797FE01307B
S21440699002D14FF0FF3026E023692A46394630467A
S2144069A0C0470130F5D023689B0710D5002504F179
S2144069B0190907E001234A4639463046C0470130A8
S2144069C0E7D00135E368039A9B1A9D42F2DBE06804
S2144069D0039B9842B8BF184605E00B7884F84230CF
S2144069E004F142058AE705B0BDE8F083DD7B400050
S2144069F0EE7B40000EB430B59CB01FAC4FF4017235
S214406A0054F8045BADF8142002900690FFF7AAF9FC
S214406A100B4B039007900B930A48019400230F9367
S214406A2014934FF6FF73ADF816302A46234602A954
S214406A30006800F077F91CB0BDE8304003B07047FE
S214406A40496A4000800000200020704710F8012B63
S214406A5011F8013B012A28BF9A42F7D0D01A704756
S214406A602DE9F04780463C48D0F800900E46354623
S214406A7015F8014B09EB0400407800F0080000F0E0
S214406A80FF0708B12E46F2E72D2C03D1B51C7478CB
S214406A90012703E02B2C04BF7478B51C13B1102BD0
S214406AA00AD153E0302C4FD1287800F0DF00582828
S214406AB045D16C78102302354FF0FF3C0026BCFBD6
S214406AC0F3FC03FB0CFA6FEA0A0A304609EB040EA5
S214406AD09EF801E01EF0040F01D0303C0BE01EF0A3
S214406AE0030E1AD0BEF1010F0CBF4FF0370E4FF019
S214406AF0570ECEEB0404A3420FDD002E08DB6045A4
S214406B0006D801D1544503DC03FB0040012601E0D2
S214406B104FF0FF3615F8014BD8E7002E07DA222350
S214406B20C8F800304FF0FF302AB9BDE8F08707B10B
S214406B30404272B106B1691E1160BDE8F08730244C
S214406B40002BB9D10823B7E70A23B5E7302CABD0E2
S214406B50B2E7BDE8F08700BF8C00002013460A4627
S214406B60014602480068FFF77BBF00BF8000002058
S214406B707047704700000000000000000000000062
S214406B8001F0FF01102A2BDB10F0070F08D010F899
S214406B90013B013A8B422DD010F0070F42B3F6D19D
S214406BA0F0B441EA012141EA014122F007047FF0B6
S214406BB000070023F0E80256083C85EA010586EA0D
S214406BC0010685FA47F5A3FA87F586FA47F6A5FA49
S214406BD087F68EB9EED1F0BC01F0FF0102F0070255
S214406BE032B110F8013B013A83EA010313B1F8D100
S214406BF00020704701387047002D06BF35460338E1
S214406C00073815F0010F07D1013015F4807F02BF19
S214406C10013015F4C03F0130F0BC0138704700BF6A
S214406C20F8B5074615460E4621B91146BDE8F84068
S214406C30FFF708B81AB9FEF7BFFF2846F8BD00F0C0
S214406C4087FB85420ED929463846FEF7FBFF0446A9
S214406C5050B131462A46FEF732FD31463846FEF7F9
S214406C60ABFF01E03046F8BD2046F8BD4B1C70B582
S214406C700E46144602D14FF0FF3070BD938923F084
S214406C8020039381536B5268CDB283B1A36B9A4273
S214406C9007DA23685A1E226003F8016C63680133E2
S214406CA01FE0214600F019FB0028F2D0E3E72169F7
S214406CB0236851B1994208D213F8011C8D4204D181
S214406CC0013B0132236062600CE0E36304F144035D
S214406CD063630323A3632346226403F8466F23605B
S214406CE001236360284670BD10B50C46496B69B1F8
S214406CF004F14403994201D0FEF75EFF236C6360C3
S214406D000020606313B1E36B236010BD23692360EA
S214406D1000236360A38943F02003A3814FF0FF3034
S214406D2010BD00002DE9F04FADF5257DDFF89892B7
S214406D3001930023469347939F4BA2930DF10C0873
S214406D409E4BDFF87CB2CDF8208107460D46A393D4
S214406D50CA461478002C00F02781D9F80030234426
S214406D605B7803F0080303F0FF01F3B16B68002B78
S214406D7010DD2B68DAF800001978014449780C07D2
S214406D8010D54799013147916968013301396960E7
S214406D902B60EBE7A39B0092294638469847009A1B
S214406DA00028E6D0561C3246D3E7252C02F10106D1
S214406DB052D14391459153782A2B02BF1023961CFB
S214406DC043930A223178A1F13003092B344606F169
S214406DD0010605D8459B02FB0313303B4593F1E77C
S214406DE003227748FFF7CCFE40B10123CBEB0000EF
S214406DF003FA00F0439B034343933446661C2478CF
S214406E00672C16D8652C7FD2472C07D8452C7BD2CA
S214406E10002C00F0CB80252C1ED077E05B2C51D088
S214406E2002D8582C3ED071E0632C57D0642C3FD00B
S214406E306CE0702C32D007D86E2C55D03AD8692CDE
S214406E4064D1002344933BE0752C31D0782C29D074
S214406E50732C5BD102233FE06B68002B0DDD2B6863
S214406E601A78944240F0A08001336A682B60479BB2
S214406E70013A01336A60479395E7A39B2946384613
S214406E8098470028EBD04698002800F08F80AB89C2
S214406E9013F0400F18BF4FF0FF3089E0439B43F09C
S214406EA020034393439B43F400734393102302E031
S214406EB00A2300E008236E2C449301DD04230BE0F4
S214406EC0032309E03146404600F0D6F9439B43F0A1
S214406ED0400343930646012349931BE0439B43F0FC
S214406EE0400343930023F7E7439AD0063FF55BAF52
S214406EF012F0010F019A479B02F1040101911268BA
S214406F0014BF138013604EE70523E5E70323499338
S214406F100A2344936B68002B03DD439B590611D527
S214406F2018E0A39B2946384698470028F5D0AAE79C
S214406F30479A013247926A68013A002A6A6013DD2E
S214406F4001332B602B68DAF800101A780A4452781E
S214406F501207EDD4499B022B0DDC01AB2A4643A910
S214406F60384600F033F819E0A39B29463846984740
S214406F700028E7D087E7042B06DC01AB2A4643A966
S214406F80384600F087F809E00E4B002B3FF40BAF75
S214406F9001AB2A4643A93846AFF30080012803D008
S214406FA002287FF400AF6EE7469801E04FF0FF30CE
S214406FB00DF5257DBDE8F08F6D6C4000E96C400016
S214406FC0D27B4000000000008C0000202DE9F843F2
S214406FD015468A6880460C4632B98A69002A0CBF34
S214406FE001224FF0FF328A602268DFF8A490D10673
S214406FF05FBF1A68111D196017680026A06900BB9C
S2144070002368DA065EBF2B681B783B702A686B687D
S21440701002F101022A60A26803F1FF3302F1FF3257
S2144070206B6006F1010658BF0137A260E2B1002B43
S214407030E4DCD4F880312946404698470028DDD025
S21440704012E0012806D12B681A7863699B5C002BF6
S214407050D6D119E0022807D12B68D9F800201B7832
S21440706013445B781B07CBD5236813F0100305D178
S214407070E2680132E260A26902B13B7023691E44B5
S21440708026610020BDE8F883002EEDD1BDE8F883E8
S2144070908C0000202DE9F04F9A46734B0C468346F1
S2144070A0164693E8070087B003ABA76883E8070057
S2144070B06E4BA1696E4A032918BF1A467B1EB3F56C
S2144070C0AE7F84BF40F25D13A3602368009243F412
S2144070D0506388BF6FF4AE7504F11C0923608CBF03
S2144070E07F1900274B464FF000080193316803ABE9
S2144070F0022253F828000978FFF742FD019B00283A
S21440710033D0B8F1010F0BD162682AB90822626009
S214407110226842F400722260226822F4A0620CE0E8
S214407120B8F1020F0AD1226802F4C061B1F5007FBF
S2144071301BD11021616042F480722260A268511E09
S214407140A16092B13268511C316012781A705D1C91
S2144071507368013B002B736006DCD4F880313146FF
S21440716058469847002840D12B4608F10108B8F108
S214407170030FBAD162680AB90A22626062683D4962
S21440718060690193891A00F077F8019B4FF0000878
S2144071901D46A3685BB3316860690A78805C30B38B
S2144071A0302A226808D1100506D508F101084FB1EB
S2144071B00133013FA36005E022F4106222600B78A1
S2144071C02B7001357368013B002B736003DD336819
S2144071D00133336005E0D4F880313146584698474D
S2144071E028B9A368013BA360D3E74FF000082368A3
S2144071F0D9050CD54D4508D915F8011CD4F87C3175
S2144072003246584698476F1E3D464D4527D0226821
S21440721012F010021BD12A706368009E49465846F9
S214407220B0472268DAF8003012F0200F07D1D207B4
S21440723005D51A1DCAF800201B68188004E01A1DE0
S214407240CAF800201B681860E3680133E3602369CE
S214407250C9EB050545441D442561002000E001209A
S21440726007B0BDE8F08F00BF007C4000616A400078
S214407270E95D40001C7C400070B50B785E2B13BF68
S2144072804A1C8A1C4B78002108BF0121441E00F18D
S214407290FF0504F8011FAC42FBD10BB9501E70BD70
S2144072A081F00104C45411460D782D2D01F10102E0
S2144072B006D05D2D0FD00DB12B46F3E7084670BDC6
S2144072C04E785D2EF8D0B342F6DC023101339E4252
S2144072D0C454FBDCE8E7104670BD2DE9F0410C468F
S2144072E0496B04F1440399421CD14FF48061FEF788
S2144072F0A9FC18B94FF0FF30BDE8F0814FF4806329
S214407300A36394F84630606380F8FF3394F84530C2
S21440731080F8FE3394F8443080F8FD3300F2FD30B8
S214407320206012E0A66B77003A46FFF779FC0546E8
S2144073300028DFD000EB0608014632464046FEF7FE
S214407340BEF9C4F800806563A7630020BDE8F081FD
S21440735051F8040C0028BEBF091851F8043CC01868
S214407360043870472E2E2F68616C2F7372632F6817
S214407370616C5F6164635F6F732E63002E2E2F68AF
S214407380616C2F7372632F68616C5F6372635F73A7
S214407390796E632E630000002E2E2F68616C2F736B
S2144073A072632F68616C5F6932635F6D5F73796E7D
S2144073B0632E63002E2E2F68616C2F7372632F68C6
S2144073C0616C5F696F2E63002E2E2F68616C2F7381
S2144073D072632F68616C5F7370695F6D5F73796EFF
S2144073E0632E63002E2E2F68616C2F7372632F6896
S2144073F0616C5F75736172745F73796E632E630040
S2144074002E2E2F68616C2F7574696C732F737263A0
S2144074102F7574696C735F72696E676275666665B0
S214407420722E63002E2E2F68706C2F6164632F6857
S214407430706C5F6164632E63000000002E2E2F6820
S214407440706C2F7370692F68706C5F7370692E63F1
S2144074500000000000860140200000000000000000
S2144074600000000075750000C05D00002E2E2F68DD
S214407470706C2F7477692F68706C5F7477692E63B1
S2144074800000000000000000C00810000D000000D2
S21440749000C0004001000000C00810009C00020030
S2144074A0000002402E2E2F68706C2F757361727428
S2144074B02F68706C5F75736172742E6300000000F5
S2144074C0656D747079000000000000000000000048
S2144074D00000000000000000000000000000000067
S2144074E00000000000000000000000000000000057
S2144074F00000000000000000000000000000000047
S2144075000000000000000000000000000000000036
S2144075100000000000000000000000000000000026
S214407520000000000000000053746172742E2E00AC
S21440753041542B4750534E4D45413D300D000000C1
S21440754041542B4750535056543D312C312C310D1D
S2144075500000000041542B47505353544152543D71
S214407560300D00004461746120496E3A2025730056
S214407570446174613A202573000000004D73672013
S214407580747970653A2025730000000054696D6573
S2144075903A20257300000000446174653A20257344
S2144075A000000000466978205374617475733A2071
S2144075B0257300004C61743A202573004C6F6E674B
S2144075C03A20257300000000324400003344000097
S2144075D056616C6964206669783A2025730000001D
S2144075E041542B47505353544F500D0054696D65CA
S2144075F020696E20554E49583A2025640000000008
S21440760053797374656D20626F6F74696E6720522C
S214407610544F532E2E2E000053700000746578741D
S2144076202F782D764361726400000000746578748C
S2144076302F76636172640000656D74707900000097
S21440764000000000000000000000000000000000F5
S21440765000000000000000000000000000000000E5
S21440766000000000000000000000000000000000D5
S21440767000000000000000000000000000000000C5
S21440768000000000000000000000000000000000B5
S21440769000000000000000000000000000000000A5
S2144076A04D6F746F7220636F6E74726F6C3A2025E4
S2144076B06400000054696D6572496E633A20256423
S2144076C02C2054696D653A20256400005072696E1E
S2144076D0743A2025640000004578616D706C652022
S2144076E05461736B3A2025640000000041540D003D
S2144076F075253031306C756F2530386C5800000079
S21440770075253031306C75632530386C5800000074
S21440771075253031306C7562256400007525303132
S214407720306C7574252B303364000000752530317D
S214407730306C756C252B3039642C252B3039640021
S214407740642530386400000044656D6F20534D5307
S2144077502C2063757272656E742025642C204C6FE5
S21440776067733A202564000054727920746F207342
S214407770656E6420646174612E2E2E0041542B4346
S2144077804D47463D310D000061742B636D67733D78
S21440779022333130303030323032220D000000009B
S2144077A01A00000041542B43434C4B3F0D00000051
S2144077B044656D6F20534D533A2025642C204C6F02
S2144077C067733A202564000056616C6964207370C4
S2144077D06C69747465642E2E2E3A202573202573AA
S2144077E02025732025730000466F726D617474699E
S2144077F06E672074686520646174612E2E2E2E009C
S2144078004578616D706C65005072696E7465720083
S21440781044656D6F5F534D530000000054696D65BD
S21440782072310000524649442052656164657200D8
S2144078304D6F746F7220436F6E74726F6C000000F1
S214407840537461636B206F766572666C6F77000069
S2144078504D616C6C6F63206661696C007800000057
S21440786000000000000000000200000000000000D1
S2144078700000000000A4040007D276000085010145
S2144078809000000000A4000C02E1030000B00000DD
S2144078900F00000000A4000C02E1040021080412BE
S2144078A0FC0001009E56BCD601014E71C3D60102B3
S2144078B0AE86C1D601034E2FC1D60104CE72ACD6D9
S2144078C001054E6BA9D60206DEC5C6D602076E096E
S2144078D0C2D60208CEB2B2D60209AEF2C4D6020A68
S2144078E02001000020000101010101020101030105
S2144078F001040102800180002F02000020020501E1
S21440790000020001200001002106010321060100BB
S2144079102E2E2F746869726470617274792F525477
S2144079204F532F6672656572746F732F4672656526
S21440793052544F5356382E322E332F72746F735F15
S214407940706F72742E63000049444C45000000007E
S2144079500925630925750925750925750D0A000051
S214407960546D722053766300430000000000000010
S2144079701F0000003B0000005A0000007800000096
S21440798097000000B5000000D4000000F30000009F
S21440799011010000300100004E0100001F000000F1
S2144079A01C0000001F0000001E0000001F0000001A
S2144079B01E0000001F0000001F0000001E00000008
S2144079C01F0000001E0000001F000000545A004721
S2144079D04D54002531305B5E302D392C2B2D5D25E6
S2144079E06E004D256875256E2E256875256E2E25EC
S2144079F06875256E002F256875256E3A25687525AD
S214407A006E3A256875256E00002020202020202014
S214407A1020202828282828202020202020202020F9
S214407A202020202020202020208810101010101009
S214407A301010101010101010100404040404040455
S214407A4004040410101010101010414141414141EF
S214407A5001010101010101010101010101010101D1
S214407A6001010101101010101010424242424242E1
S214407A7002020202020202020202020202020202A1
S214407A800202020210101010200000000000000049
S214407A9000000000000000000000000000000000A1
S214407AA00000000000000000000000000000000091
S214407AB00000000000000000000000000000000081
S214407AC00000000000000000000000000000000071
S214407AD00000000000000000000000000000000061
S214407AE00000000000000000000000000000000051
S214407AF00000000000000000000000000000000041
S214407B000000000000000000000000000000000030
S214407B100000000000000000000000000000000020
S214407B200000000000000000000000000000000010
S214407B300000000000000000000000000000000000
S214407B4000000000000000000000000000000000F0
S214407B5000000000000000000000000000000000E0
S214407B600000000000000000000000001F000000B1
S214407B701C0000001F0000001E0000001F00000048
S214407B801E0000001F0000001F0000001E00000036
S214407B901F0000001E0000001F0000001F00000025
S214407BA01D0000001F0000001E0000001F00000017
S214407BB01E0000001F0000001F0000001E00000006
S214407BC01F0000001E0000001F000000232D302B69
S214407BD02000686C4C006566674546470030313289
S214407BE033343536373839414243444546003031E0
S214407BF0323334353637383961626364656600003F
S214407C001E7C4000217C4000247C4000412D466183
S214407C102D66383930313233343536375D002B2DCA
S214407C200030300078580000F8B500BFF8BC08BCFB
S214407C309E4670472D014000F8B500BFF8BC08BC12
S20C407C409E4670470901400012
S214407C4800010280000102803C000000100600008F
S214407C58000000000000010B00018000AAAAAAAAA2
S214407C68000000000C7B40002C7B40004C7B400012
S214407C7800000000000000000000000000000000B7
S214407C886879400000000000000000000000000086
S214407C980000000000000000000000000000000097
S214407CA80000000000000000000000000000000087
S214407CB80000000000000000000000000000000077
S214407CC820000020CF794000CF794000087A400055
S214407CD801000000000000004A000000000000000C
S214407CE80000000000000000000000000000000047
S214407CF8000000004A0000000000000000000000ED
S214407D080000000000000000000000000000000026
S208407D1804000120FD
S804400000BB
